Component: ARM Compiler 5.06 update 6 (build 750) Tool: armlink [4d35ed]

==============================================================================

Section Cross References

    board.o(i.BOARD_ConfigMPU) refers to board.o(i.SCB_DisableDCache) for SCB_DisableDCache
    board.o(i.BOARD_ConfigMPU) refers to board.o(i.SCB_EnableDCache) for SCB_EnableDCache
    board.o(i.BOARD_ConfigMPU) refers to board.o(i.SCB_EnableICache) for SCB_EnableICache
    board.o(i.BOARD_DebugConsoleSrcFreq) refers to fsl_clock.o(i.CLOCK_GetPllFreq) for CLOCK_GetPllFreq
    board.o(i.BOARD_DebugConsoleSrcFreq) refers to board.o(i.CLOCK_GetDiv) for CLOCK_GetDiv
    board.o(i.BOARD_DebugConsoleSrcFreq) refers to fsl_clock.o(.data) for g_xtalFreq
    board.o(i.BOARD_InitDebugConsole) refers to board.o(i.BOARD_DebugConsoleSrcFreq) for BOARD_DebugConsoleSrcFreq
    board.o(i.BOARD_InitDebugConsole) refers to fsl_debug_console.o(i.DbgConsole_Init) for DbgConsole_Init
    board.o(i.Collision_Detect_Init) refers to fsl_gpio.o(i.GPIO_PinInit) for GPIO_PinInit
    board.o(i.Collision_Detect_Init) refers to board.o(.constdata) for .constdata
    board.o(i.IR_SENSOR_INIT) refers to fsl_gpio.o(i.GPIO_PinInit) for GPIO_PinInit
    board.o(i.IR_SENSOR_INIT) refers to board.o(.constdata) for .constdata
    clock_config.o(i.BOARD_BootClockRUN) refers to clock_config.o(i.CLOCK_SetMux) for CLOCK_SetMux
    clock_config.o(i.BOARD_BootClockRUN) refers to fsl_clock.o(i.CLOCK_InitArmPll) for CLOCK_InitArmPll
    clock_config.o(i.BOARD_BootClockRUN) refers to fsl_clock.o(i.CLOCK_InitUsb1Pll) for CLOCK_InitUsb1Pll
    clock_config.o(i.BOARD_BootClockRUN) refers to clock_config.o(i.CLOCK_SetDiv) for CLOCK_SetDiv
    clock_config.o(i.BOARD_BootClockRUN) refers to clock_config.o(i.BOARD_BootClockGate) for BOARD_BootClockGate
    clock_config.o(i.BOARD_BootClockRUN) refers to fsl_clock.o(i.CLOCK_DeinitAudioPll) for CLOCK_DeinitAudioPll
==============================================================================

Removing Unused input sections from the image.

    Removing board.o(.rev16_text), (4 bytes).
    Removing board.o(.revsh_text), (4 bytes).
    Removing board.o(.rrx_text), (6 bytes).
    Removing clock_config.o(.rev16_text), (4 bytes).
    Removing clock_config.o(.revsh_text), (4 bytes).
    Removing clock_config.o(.rrx_text), (6 bytes).
    Removing pin_mux.o(.rev16_text), (4 bytes).
    Removing pin_mux.o(.revsh_text), (4 bytes).
    Removing pin_mux.o(.rrx_text), (6 bytes).
    Removing pin_mux.o(i.BOARD_InitSemcPins), (1004 bytes).
    Removing fsl_adc.o(.rev16_text), (4 bytes).
    Removing fsl_adc.o(.revsh_text), (4 bytes).
    Removing fsl_adc.o(.rrx_text), (6 bytes).
    Removing fsl_adc.o(i.ADC_ClearStatusFlags), (28 bytes).
    Removing fsl_adc.o(i.ADC_Deinit), (32 bytes).
    Removing fsl_adc.o(i.ADC_DoAutoCalibration), (252 bytes).
    Removing fsl_adc.o(i.ADC_EnableHardwareTrigger), (22 bytes).
    Removing fsl_adc.o(i.ADC_GetDefaultConfig), (96 bytes).
==============================================================================

Image Symbol Table

    Local Symbols

    Symbol Name                              Value     Ov Type        Size  Object(Section)

    ../clib/angel/boardlib.s                 0x00000000   Number         0  boardshut.o ABSOLUTE
    ../clib/angel/boardlib.s                 0x00000000   Number         0  boardinit1.o ABSOLUTE
    ../clib/angel/boardlib.s                 0x00000000   Number         0  boardinit2.o ABSOLUTE
    ../clib/angel/boardlib.s                 0x00000000   Number         0  boardinit3.o ABSOLUTE
    ../clib/angel/handlers.s                 0x00000000   Number         0  __scatter_zi.o ABSOLUTE
    ../clib/angel/handlers.s                 0x00000000   Number         0  __scatter_copy.o ABSOLUTE
    ../clib/angel/kernel.s                   0x00000000   Number         0  __rtentry2.o ABSOLUTE
    ../clib/angel/kernel.s                   0x00000000   Number         0  rtexit2.o ABSOLUTE
    ../clib/angel/kernel.s                   0x00000000   Number         0  rtexit.o ABSOLUTE
    ../clib/angel/kernel.s                   0x00000000   Number         0  __rtentry.o ABSOLUTE
    ../clib/angel/kernel.s                   0x00000000   Number         0  __rtentry7.o ABSOLUTE
    ../clib/angel/kernel.s                   0x00000000   Number         0  __rtentry4.o ABSOLUTE
    ../clib/angel/rt.s                       0x00000000   Number         0  rt_locale_intlibspace.o ABSOLUTE
    ../clib/angel/rt.s                       0x00000000   Number         0  rt_raise.o ABSOLUTE
    ../clib/angel/rt.s                       0x00000000   Number         0  rt_locale.o ABSOLUTE
    ../clib/angel/rt.s                       0x00000000   Number         0  rt_heap_descriptor.o ABSOLUTE
    ../clib/angel/rt.s                       0x00000000   Number         0  rt_errno_addr.o ABSOLUTE
    ../clib/angel/rt.s                       0x00000000   Number         0  rt_div0.o ABSOLUTE
    ../clib/angel/rt.s                       0x00000000   Number         0  rt_ctype_table.o ABSOLUTE
    ../clib/angel/rt.s                       0x00000000   Number         0  aeabi_ldiv0.o ABSOLUTE
    ../clib/angel/rt.s                       0x00000000   Number         0  rt_errno_addr_intlibspace.o ABSOLUTE
    ../clib/angel/rt.s                       0x00000000   Number         0  aeabi_ldiv0_sigfpe.o ABSOLUTE
    ../clib/angel/rt.s                       0x00000000   Number         0  rt_heap_descriptor_intlibspace.o ABSOLUTE
    ../clib/angel/scatter.s                  0x00000000   Number         0  __scatter.o ABSOLUTE
    ../clib/angel/startup.s                  0x00000000   Number         0  __main.o ABSOLUTE
    ../clib/angel/sys.s                      0x00000000   Number         0  mutex_dummy.o ABSOLUTE
    ../clib/angel/sys.s                      0x00000000   Number         0  libspace.o ABSOLUTE
    ../clib/angel/sys.s                      0x00000000   Number         0  sys_stackheap.o ABSOLUTE
    ../clib/angel/sys.s                      0x00000000   Number         0  sys_stackheap_outer.o ABSOLUTE
    ../clib/angel/sys.s                      0x00000000   Number         0  indicate_semi.o ABSOLUTE
    ../clib/angel/sys.s                      0x00000000   Number         0  use_no_semi.o ABSOLUTE
    ../clib/angel/sysapp.c                   0x00000000   Number         0  sys_exit.o ABSOLUTE
    ../clib/angel/sysapp.c                   0x00000000   Number         0  sys_command.o ABSOLUTE
    ../clib/angel/sysapp.c                   0x00000000   Number         0  sys_wrch.o ABSOLUTE
    ../clib/armsys.c                         0x00000000   Number         0  argv_veneer.o ABSOLUTE
    ../clib/armsys.c                         0x00000000   Number         0  argv_veneer.o ABSOLUTE
    ../clib/armsys.c                         0x00000000   Number         0  _get_argv.o ABSOLUTE
    ../clib/armsys.c                         0x00000000   Number         0  _get_argv_nomalloc.o ABSOLUTE
    ../clib/armsys.c                         0x00000000   Number         0  no_argv.o ABSOLUTE
    ../clib/heap1.c                          0x00000000   Number         0  h1_extend.o ABSOLUTE
    ../clib/heap1.c                          0x00000000   Number         0  h1_init_mt.o ABSOLUTE
    ../clib/heap1.c                          0x00000000   Number         0  h1_alloc.o ABSOLUTE
    ../clib/heap1.c                          0x00000000   Number         0  h1_extend_mt.o ABSOLUTE
    ../clib/heap1.c                          0x00000000   Number         0  h1_free_mt.o ABSOLUTE
    ../clib/heap1.c                          0x00000000   Number         0  h1_final_mt.o ABSOLUTE
    ../clib/heap1.c                          0x00000000   Number         0  h1_final.o ABSOLUTE
    ../clib/heap1.c                          0x00000000   Number         0  h1_init.o ABSOLUTE
    ../clib/heap1.c                          0x00000000   Number         0  h1_alloc_mt.o ABSOLUTE
    ../clib/heap1.c                          0x00000000   Number         0  h1_free.o ABSOLUTE
    ../clib/heap2.c                          0x00000000   Number         0  fdtree.o ABSOLUTE
    ../clib/heap2.c                          0x00000000   Number         0  heap2.o ABSOLUTE
    ../clib/heap2.c                          0x00000000   Number         0  heap2mt.o ABSOLUTE
    ../clib/heapalloc.c                      0x00000000   Number         0  maybetermalloc2.o ABSOLUTE
    ../clib/heapalloc.c                      0x00000000   Number         0  maybetermalloc1.o ABSOLUTE
    ../clib/heapalloc.c                      0x00000000   Number         0  hrguard.o ABSOLUTE
    ../clib/heapalloc.c                      0x00000000   Number         0  term_alloc.o ABSOLUTE
    ../clib/heapalloc.c                      0x00000000   Number         0  init_alloc.o ABSOLUTE
    ../clib/heapalloc.c                      0x00000000   Number         0  maybetermalloc1.o ABSOLUTE
    ../clib/heapalloc.c                      0x00000000   Number         0  heapstubs.o ABSOLUTE
    ../clib/heapalloc.c                      0x00000000   Number         0  free.o ABSOLUTE
    ../clib/heapalloc.c                      0x00000000   Number         0  malloc.o ABSOLUTE
    ../clib/heapalloc.c                      0x00000000   Number         0  hguard.o ABSOLUTE
    ../clib/heapalloc.c                      0x00000000   Number         0  maybetermalloc2.o ABSOLUTE
    ../clib/heapaux.c                        0x00000000   Number         0  heapauxi.o ABSOLUTE
    ../clib/heapaux.c                        0x00000000   Number         0  heapauxa.o ABSOLUTE
    ../clib/libinit.s                        0x00000000   Number         0  libinit5.o ABSOLUTE
    ../clib/libinit.s                        0x00000000   Number         0  libshutdown2.o ABSOLUTE
    ../clib/libinit.s                        0x00000000   Number         0  libinit2.o ABSOLUTE
    ../clib/libinit.s                        0x00000000   Number         0  libshutdown.o ABSOLUTE
    ../clib/libinit.s                        0x00000000   Number         0  libinit.o ABSOLUTE
    ../clib/locale.s                         0x00000000   Number         0  lc_ctype_c.o ABSOLUTE
    ../clib/longlong.s                       0x00000000   Number         0  lludivv7m.o ABSOLUTE
    ../clib/memcpset.s                       0x00000000   Number         0  strcmpv7m_pel.o ABSOLUTE
    ../clib/memcpset.s                       0x00000000   Number         0  rt_memclr.o ABSOLUTE
    ../clib/memcpset.s                       0x00000000   Number         0  rt_memclr_w.o ABSOLUTE
    ../clib/memcpset.s                       0x00000000   Number         0  rt_memmove_v6.o ABSOLUTE
    ../clib/memcpset.s                       0x00000000   Number         0  rt_memcpy_v6.o ABSOLUTE
    ../clib/memcpset.s                       0x00000000   Number         0  rt_memcpy_w.o ABSOLUTE
    ../clib/memcpset.s                       0x00000000   Number         0  rt_memmove_w.o ABSOLUTE
    ../clib/memcpset.s                       0x00000000   Number         0  aeabi_memset.o ABSOLUTE
    ../clib/scanf.c                          0x00000000   Number         0  strtol.o ABSOLUTE
    ../clib/scanf.c                          0x00000000   Number         0  _chval.o ABSOLUTE
    ../clib/scanf.c                          0x00000000   Number         0  _strtoul.o ABSOLUTE
    ../clib/scanf.c                          0x00000000   Number         0  atoi.o ABSOLUTE
    ../clib/signal.c                         0x00000000   Number         0  defsig_cppl_inner.o ABSOLUTE
    ../clib/signal.c                         0x00000000   Number         0  defsig_pvfn_inner.o ABSOLUTE
    ../clib/signal.c                         0x00000000   Number         0  defsig_stak_inner.o ABSOLUTE
    ../clib/signal.c                         0x00000000   Number         0  defsig_abrt_inner.o ABSOLUTE
    ../clib/signal.c                         0x00000000   Number         0  defsig_fpe_inner.o ABSOLUTE
    ../clib/signal.c                         0x00000000   Number         0  defsig_general.o ABSOLUTE
    ../clib/signal.c                         0x00000000   Number         0  __raise.o ABSOLUTE
    ../clib/signal.c                         0x00000000   Number         0  defsig_rtmem_inner.o ABSOLUTE
    ../clib/signal.c                         0x00000000   Number         0  defsig_fpe_formal.o ABSOLUTE
    ../clib/signal.c                         0x00000000   Number         0  defsig_fpe_outer.o ABSOLUTE
    ../clib/signal.c                         0x00000000   Number         0  defsig_exit.o ABSOLUTE
    ../clib/signal.c                         0x00000000   Number         0  defsig_rtmem_formal.o ABSOLUTE
    ../clib/signal.c                         0x00000000   Number         0  defsig_rtmem_outer.o ABSOLUTE
    ../clib/signal.c                         0x00000000   Number         0  defsig_rtred_inner.o ABSOLUTE
    ../clib/signal.c                         0x00000000   Number         0  defsig_other.o ABSOLUTE
    ../clib/signal.c                         0x00000000   Number         0  defsig_segv_inner.o ABSOLUTE
    ../clib/signal.s                         0x00000000   Number         0  defsig.o ABSOLUTE
    ../clib/stdlib.c                         0x00000000   Number         0  exit.o ABSOLUTE
    ../clib/string.c                         0x00000000   Number         0  strlen.o ABSOLUTE
    ../fplib/fpinit.s                        0x00000000   Number         0  fpinit.o ABSOLUTE
    Libraries\\drivers\\fsl_adc.c            0x00000000   Number         0  fsl_adc.o ABSOLUTE
    Libraries\\drivers\\fsl_clock.c          0x00000000   Number         0  fsl_clock.o ABSOLUTE
    Libraries\\drivers\\fsl_common.c         0x00000000   Number         0  fsl_common.o ABSOLUTE
    Libraries\\drivers\\fsl_flexio.c         0x00000000   Number         0  fsl_flexio.o ABSOLUTE
    Libraries\\drivers\\fsl_gpio.c           0x00000000   Number         0  fsl_gpio.o ABSOLUTE
    Libraries\\drivers\\fsl_lpi2c.c          0x00000000   Number         0  fsl_lpi2c.o ABSOLUTE
    Libraries\\drivers\\fsl_lpi2c_freertos.c 0x00000000   Number         0  fsl_lpi2c_freertos.o ABSOLUTE
    Libraries\\drivers\\fsl_lpuart.c         0x00000000   Number         0  fsl_lpuart.o ABSOLUTE
    Libraries\\drivers\\fsl_pwm.c            0x00000000   Number         0  fsl_pwm.o ABSOLUTE
    Libraries\\drivers\\fsl_semc.c           0x00000000   Number         0  fsl_semc.o ABSOLUTE
    Libraries\\drivers\\fsl_xbara.c          0x00000000   Number         0  fsl_xbara.o ABSOLUTE
    Libraries\\drivers\\fsl_xbarb.c          0x00000000   Number         0  fsl_xbarb.o ABSOLUTE
    Libraries\\system_MIMXRT1052.c           0x00000000   Number         0  system_mimxrt1052.o ABSOLUTE
    Libraries\\utilities\\fsl_assert.c       0x00000000   Number         0  fsl_assert.o ABSOLUTE
    Libraries\\utilities\\fsl_debug_console.c 0x00000000   Number         0  fsl_debug_console.o ABSOLUTE
    Libraries\\utilities\\fsl_shell.c        0x00000000   Number         0  fsl_shell.o ABSOLUTE
    Libraries\\utilities\\io\\fsl_io.c       0x00000000   Number         0  fsl_io.o ABSOLUTE
    Libraries\\utilities\\log\\fsl_log.c     0x00000000   Number         0  fsl_log.o ABSOLUTE
    Libraries\\utilities\\str\\fsl_str.c     0x00000000   Number         0  fsl_str.o ABSOLUTE
    Libraries\arm\startup_MIMXRT1052.s       0x00000000   Number         0  startup_mimxrt1052.o ABSOLUTE
    Libraries\drivers\fsl_adc.c              0x00000000   Number         0  fsl_adc.o ABSOLUTE
    Libraries\drivers\fsl_clock.c            0x00000000   Number         0  fsl_clock.o ABSOLUTE
    Libraries\drivers\fsl_common.c           0x00000000   Number         0  fsl_common.o ABSOLUTE
    Libraries\drivers\fsl_flexio.c           0x00000000   Number         0  fsl_flexio.o ABSOLUTE
    Libraries\drivers\fsl_gpio.c             0x00000000   Number         0  fsl_gpio.o ABSOLUTE
    Libraries\drivers\fsl_lpi2c.c            0x00000000   Number         0  fsl_lpi2c.o ABSOLUTE
    Libraries\drivers\fsl_lpi2c_freertos.c   0x00000000   Number         0  fsl_lpi2c_freertos.o ABSOLUTE
    Libraries\drivers\fsl_lpuart.c           0x00000000   Number         0  fsl_lpuart.o ABSOLUTE
    Libraries\drivers\fsl_pwm.c              0x00000000   Number         0  fsl_pwm.o ABSOLUTE
    Libraries\drivers\fsl_semc.c             0x00000000   Number         0  fsl_semc.o ABSOLUTE
    Libraries\drivers\fsl_xbara.c            0x00000000   Number         0  fsl_xbara.o ABSOLUTE
    Libraries\drivers\fsl_xbarb.c            0x00000000   Number         0  fsl_xbarb.o ABSOLUTE
    Libraries\system_MIMXRT1052.c            0x00000000   Number         0  system_mimxrt1052.o ABSOLUTE
    Libraries\utilities\fsl_assert.c         0x00000000   Number         0  fsl_assert.o ABSOLUTE
    Libraries\utilities\fsl_debug_console.c  0x00000000   Number         0  fsl_debug_console.o ABSOLUTE
    Libraries\utilities\fsl_shell.c          0x00000000   Number         0  fsl_shell.o ABSOLUTE
    Libraries\utilities\io\fsl_io.c          0x00000000   Number         0  fsl_io.o ABSOLUTE
    Libraries\utilities\log\fsl_log.c        0x00000000   Number         0  fsl_log.o ABSOLUTE
    Libraries\utilities\str\fsl_str.c        0x00000000   Number         0  fsl_str.o ABSOLUTE
    USER\CleanBot_main.c                     0x00000000   Number         0  cleanbot_main.o ABSOLUTE
    USER\Motor.c                             0x00000000   Number         0  motor.o ABSOLUTE
    USER\Shell_command.c                     0x00000000   Number         0  shell_command.o ABSOLUTE
    USER\VL53L0X.c                           0x00000000   Number         0  vl53l0x.o ABSOLUTE
    USER\\CleanBot_main.c                    0x00000000   Number         0  cleanbot_main.o ABSOLUTE
    USER\\Motor.c                            0x00000000   Number         0  motor.o ABSOLUTE
    USER\\Shell_command.c                    0x00000000   Number         0  shell_command.o ABSOLUTE
    USER\\VL53L0X.c                          0x00000000   Number         0  vl53l0x.o ABSOLUTE
    USER\\app.c                              0x00000000   Number         0  app.o ABSOLUTE
    USER\\board.c                            0x00000000   Number         0  board.o ABSOLUTE
    USER\\clock_config.c                     0x00000000   Number         0  clock_config.o ABSOLUTE
    USER\\common.c                           0x00000000   Number         0  common.o ABSOLUTE
    USER\\pin_mux.c                          0x00000000   Number         0  pin_mux.o ABSOLUTE
    USER\\sdram.c                            0x00000000   Number         0  sdram.o ABSOLUTE
    USER\app.c                               0x00000000   Number         0  app.o ABSOLUTE
    USER\board.c                             0x00000000   Number         0  board.o ABSOLUTE
    USER\clock_config.c                      0x00000000   Number         0  clock_config.o ABSOLUTE
    USER\common.c                            0x00000000   Number         0  common.o ABSOLUTE
    USER\nor_flash_boot.c                    0x00000000   Number         0  nor_flash_boot.o ABSOLUTE
    USER\pin_mux.c                           0x00000000   Number         0  pin_mux.o ABSOLUTE
    USER\sdram.c                             0x00000000   Number         0  sdram.o ABSOLUTE
    dc.s                                     0x00000000   Number         0  dc.o ABSOLUTE
    rtos\\freertos\\Source\\portable\\RVDS\\ARM_CM4F\\port.c 0x00000000   Number         0  port.o ABSOLUTE
    rtos\freertos\Source\croutine.c          0x00000000   Number         0  croutine.o ABSOLUTE
    rtos\freertos\Source\event_groups.c      0x00000000   Number         0  event_groups.o ABSOLUTE
    rtos\freertos\Source\list.c              0x00000000   Number         0  list.o ABSOLUTE
    rtos\freertos\Source\portable\MemMang\heap_4.c 0x00000000   Number         0  heap_4.o ABSOLUTE
    rtos\freertos\Source\portable\RVDS\ARM_CM4F\fsl_tickless_systick.c 0x00000000   Number         0  fsl_tickless_systick.o ABSOLUTE
    rtos\freertos\Source\portable\RVDS\ARM_CM4F\port.c 0x00000000   Number         0  port.o ABSOLUTE
    rtos\freertos\Source\queue.c             0x00000000   Number         0  queue.o ABSOLUTE
    rtos\freertos\Source\tasks.c             0x00000000   Number         0  tasks.o ABSOLUTE
    rtos\freertos\Source\timers.c            0x00000000   Number         0  timers.o ABSOLUTE
    .data                                    0x20000000   Section        8  fsl_clock.o(.data)
    .data                                    0x20000008   Section       24  fsl_flexio.o(.data)
    s_flexioHandle                           0x20000008   Data           8  fsl_flexio.o(.data)
    s_flexioType                             0x20000010   Data           8  fsl_flexio.o(.data)
    s_flexioIsr                              0x20000018   Data           8  fsl_flexio.o(.data)
    .data                                    0x20000020   Section        8  fsl_lpi2c.o(.data)
    s_lpi2cMasterIsr                         0x20000020   Data           4  fsl_lpi2c.o(.data)
    s_lpi2cSlaveIsr                          0x20000024   Data           4  fsl_lpi2c.o(.data)
    .data                                    0x20000028   Section        4  fsl_lpuart.o(.data)
    s_lpuartIsr                              0x20000028   Data           4  fsl_lpuart.o(.data)
    .data                                    0x2000002c   Section       60  tasks.o(.data)
    pxDelayedTaskList                        0x20000030   Data           4  tasks.o(.data)
    pxOverflowDelayedTaskList                0x20000034   Data           4  tasks.o(.data)
    uxDeletedTasksWaitingCleanUp             0x20000038   Data           4  tasks.o(.data)
    uxCurrentNumberOfTasks                   0x2000003c   Data           4  tasks.o(.data)
    xTickCount                               0x20000040   Data           4  tasks.o(.data)
    uxTopReadyPriority                       0x20000044   Data           4  tasks.o(.data)
    xSchedulerRunning                        0x20000048   Data           4  tasks.o(.data)
    uxPendedTicks                            0x2000004c   Data           4  tasks.o(.data)
    xYieldPending                            0x20000050   Data           4  tasks.o(.data)
    xNumOfOverflows                          0x20000054   Data           4  tasks.o(.data)
    uxTaskNumber                             0x20000058   Data           4  tasks.o(.data)
    xNextTaskUnblockTime                     0x2000005c   Data           4  tasks.o(.data)
    xIdleTaskHandle                          0x20000060   Data           4  tasks.o(.data)
    uxSchedulerSuspended                     0x20000064   Data           4  tasks.o(.data)
    .data                                    0x20000068   Section       20  timers.o(.data)
    pxCurrentTimerList                       0x20000068   Data           4  timers.o(.data)
    pxOverflowTimerList                      0x2000006c   Data           4  timers.o(.data)
    xTimerQueue                              0x20000070   Data           4  timers.o(.data)
    xTimerTaskHandle                         0x20000074   Data           4  timers.o(.data)
    xLastTime                                0x20000078   Data           4  timers.o(.data)
    .data                                    0x2000007c   Section       12  port.o(.data)
    uxCriticalNesting                        0x2000007c   Data           4  port.o(.data)
    ucMaxSysCallPriority                     0x20000080   Data           1  port.o(.data)
    ulMaxPRIGROUPValue                       0x20000084   Data           4  port.o(.data)
    .data                                    0x20000088   Section       24  heap_4.o(.data)
    xStart                                   0x20000088   Data           8  heap_4.o(.data)
    pxEnd                                    0x20000090   Data           4  heap_4.o(.data)
    xFreeBytesRemaining                      0x20000094   Data           4  heap_4.o(.data)
    xMinimumEverFreeBytesRemaining           0x20000098   Data           4  heap_4.o(.data)
    xBlockAllocatedBit                       0x2000009c   Data           4  heap_4.o(.data)
    .data                                    0x200000a0   Section        4  system_mimxrt1052.o(.data)
    .data                                    0x200000a4   Section        8  fsl_io.o(.data)
    s_debugConsoleIO                         0x200000a4   Data           8  fsl_io.o(.data)
    .data                                    0x200000ac   Section       12  fsl_shell.o(.data)
    endoflinechar                            0x200000ac   Data           1  fsl_shell.o(.data)
    tmpCommand                               0x200000b0   Data           4  fsl_shell.o(.data)
    tmpCommandString                         0x200000b4   Data           4  fsl_shell.o(.data)
    .data                                    0x200000b8   Section        6  app.o(.data)
    .data                                    0x200000be   Section        8  common.o(.data)
    .data                                    0x200000c8   Section       18  vl53l0x.o(.data)
    .bss                                     0x200000dc   Section       32  fsl_lpi2c.o(.bss)
    s_lpi2cMasterHandle                      0x200000dc   Data          16  fsl_lpi2c.o(.bss)
    s_lpi2cSlaveHandle                       0x200000ec   Data          16  fsl_lpi2c.o(.bss)
    .bss                                     0x200000fc   Section       36  fsl_lpuart.o(.bss)
    s_lpuartHandle                           0x200000fc   Data          36  fsl_lpuart.o(.bss)
    .bss                                     0x20000120   Section       64  queue.o(.bss)
    .bss                                     0x20000160   Section      300  tasks.o(.bss)
    pxReadyTasksLists                        0x20000160   Data         200  tasks.o(.bss)
    xDelayedTaskList1                        0x20000228   Data          20  tasks.o(.bss)
    xDelayedTaskList2                        0x2000023c   Data          20  tasks.o(.bss)
    xPendingReadyList                        0x20000250   Data          20  tasks.o(.bss)
    xTasksWaitingTermination                 0x20000264   Data          20  tasks.o(.bss)
    xSuspendedTaskList                       0x20000278   Data          20  tasks.o(.bss)
    .bss                                     0x2000028c   Section       40  timers.o(.bss)
    xActiveTimerList1                        0x2000028c   Data          20  timers.o(.bss)
    xActiveTimerList2                        0x200002a0   Data          20  timers.o(.bss)
    .bss                                     0x200002b4   Section    10240  heap_4.o(.bss)
    ucHeap                                   0x200002b4   Data       10240  heap_4.o(.bss)
    .bss                                     0x20002ab4   Section      148  fsl_shell.o(.bss)
    g_RegisteredCommands                     0x20002ab4   Data          84  fsl_shell.o(.bss)
    g_paramBuffer                            0x20002b08   Data          64  fsl_shell.o(.bss)
    .bss                                     0x20002b48   Section      196  vl53l0x.o(.bss)
    .bss                                     0x20002c0c   Section       96  libspace.o(.bss)
    .ARM.__AT_0x60000000                     0x60000000   Section      512  nor_flash_boot.o(.ARM.__AT_0x60000000)
    boot_data                                0x60000000   Data         512  nor_flash_boot.o(.ARM.__AT_0x60000000)
    .ARM.__AT_0x60001000                     0x60001000   Section       64  nor_flash_boot.o(.ARM.__AT_0x60001000)
    image_vector_table                       0x60001000   Data          64  nor_flash_boot.o(.ARM.__AT_0x60001000)
    RESET                                    0x60002000   Section     1024  startup_mimxrt1052.o(RESET)
    !!!main                                  0x60002400   Section        8  __main.o(!!!main)
    !!!scatter                               0x60002408   Section       52  __scatter.o(!!!scatter)
    !!handler_copy                           0x6000243c   Section       26  __scatter_copy.o(!!handler_copy)
    !!handler_zi                             0x60002458   Section       28  __scatter_zi.o(!!handler_zi)
    .ARM.Collect$$libinit$$00000000          0x60002474   Section        2  libinit.o(.ARM.Collect$$libinit$$00000000)
    .ARM.Collect$$libinit$$00000001          0x60002476   Section        4  libinit2.o(.ARM.Collect$$libinit$$00000001)
    .ARM.Collect$$libinit$$00000004          0x6000247a   Section        0  libinit2.o(.ARM.Collect$$libinit$$00000004)
    .ARM.Collect$$libinit$$0000000A          0x6000247a   Section        0  libinit2.o(.ARM.Collect$$libinit$$0000000A)
    .ARM.Collect$$libinit$$0000000C          0x6000247a   Section        0  libinit2.o(.ARM.Collect$$libinit$$0000000C)
    .ARM.Collect$$libinit$$0000000E          0x6000247a   Section        0  libinit2.o(.ARM.Collect$$libinit$$0000000E)
    .ARM.Collect$$libinit$$0000000F          0x6000247a   Section        6  libinit2.o(.ARM.Collect$$libinit$$0000000F)
    .ARM.Collect$$libinit$$00000011          0x60002480   Section        0  libinit2.o(.ARM.Collect$$libinit$$00000011)
    .ARM.Collect$$libinit$$00000012          0x60002480   Section       12  libinit2.o(.ARM.Collect$$libinit$$00000012)
    .ARM.Collect$$libinit$$00000013          0x6000248c   Section        0  libinit2.o(.ARM.Collect$$libinit$$00000013)
    .ARM.Collect$$libinit$$00000015          0x6000248c   Section        0  libinit2.o(.ARM.Collect$$libinit$$00000015)
    .ARM.Collect$$libinit$$00000017          0x6000248c   Section        0  libinit2.o(.ARM.Collect$$libinit$$00000017)
    .ARM.Collect$$libinit$$00000019          0x6000248c   Section        0  libinit2.o(.ARM.Collect$$libinit$$00000019)
    .ARM.Collect$$libinit$$0000001B          0x6000248c   Section        0  libinit2.o(.ARM.Collect$$libinit$$0000001B)
    .ARM.Collect$$libinit$$0000001D          0x6000248c   Section        0  libinit2.o(.ARM.Collect$$libinit$$0000001D)
    .ARM.Collect$$libinit$$0000001F          0x6000248c   Section        0  libinit2.o(.ARM.Collect$$libinit$$0000001F)
    .ARM.Collect$$libinit$$00000020          0x6000248c   Section        4  libinit2.o(.ARM.Collect$$libinit$$00000020)
    .ARM.Collect$$libinit$$00000023          0x60002490   Section        0  libinit2.o(.ARM.Collect$$libinit$$00000023)
    .ARM.Collect$$libinit$$00000025          0x60002490   Section        0  libinit2.o(.ARM.Collect$$libinit$$00000025)
    .ARM.Collect$$libinit$$0000002C          0x60002490   Section        0  libinit2.o(.ARM.Collect$$libinit$$0000002C)
    .ARM.Collect$$libinit$$0000002E          0x60002490   Section        0  libinit2.o(.ARM.Collect$$libinit$$0000002E)
    .ARM.Collect$$libinit$$00000030          0x60002490   Section        0  libinit2.o(.ARM.Collect$$libinit$$00000030)
    .ARM.Collect$$libinit$$00000032          0x60002490   Section        0  libinit2.o(.ARM.Collect$$libinit$$00000032)
    .ARM.Collect$$libinit$$00000033          0x60002490   Section        2  libinit2.o(.ARM.Collect$$libinit$$00000033)
    .ARM.Collect$$libshutdown$$00000000      0x60002492   Section        2  libshutdown.o(.ARM.Collect$$libshutdown$$00000000)
    .ARM.Collect$$libshutdown$$00000002      0x60002494   Section        0  libshutdown2.o(.ARM.Collect$$libshutdown$$00000002)
    .ARM.Collect$$libshutdown$$00000004      0x60002494   Section        0  libshutdown2.o(.ARM.Collect$$libshutdown$$00000004)
    .ARM.Collect$$libshutdown$$00000007      0x60002494   Section        0  libshutdown2.o(.ARM.Collect$$libshutdown$$00000007)
    .ARM.Collect$$libshutdown$$0000000A      0x60002494   Section        0  libshutdown2.o(.ARM.Collect$$libshutdown$$0000000A)
    .ARM.Collect$$libshutdown$$0000000C      0x60002494   Section        0  libshutdown2.o(.ARM.Collect$$libshutdown$$0000000C)
    .ARM.Collect$$libshutdown$$0000000F      0x60002494   Section        0  libshutdown2.o(.ARM.Collect$$libshutdown$$0000000F)
    .ARM.Collect$$libshutdown$$00000010      0x60002494   Section        2  libshutdown2.o(.ARM.Collect$$libshutdown$$00000010)
    .ARM.Collect$$rtentry$$00000000          0x60002496   Section        0  __rtentry.o(.ARM.Collect$$rtentry$$00000000)
    .ARM.Collect$$rtentry$$00000002          0x60002496   Section        0  __rtentry2.o(.ARM.Collect$$rtentry$$00000002)
    .ARM.Collect$$rtentry$$00000007          0x60002496   Section        4  __rtentry7.o(.ARM.Collect$$rtentry$$00000007)
    .ARM.Collect$$rtentry$$00000009          0x6000249a   Section        0  __rtentry2.o(.ARM.Collect$$rtentry$$00000009)
    .ARM.Collect$$rtentry$$0000000A          0x6000249a   Section        4  __rtentry2.o(.ARM.Collect$$rtentry$$0000000A)
    .ARM.Collect$$rtentry$$0000000C          0x6000249e   Section        0  __rtentry2.o(.ARM.Collect$$rtentry$$0000000C)
    .ARM.Collect$$rtentry$$0000000D          0x6000249e   Section        8  __rtentry2.o(.ARM.Collect$$rtentry$$0000000D)
    .ARM.Collect$$rtentry$$00002718          0x600024a8   Section        4  __rtentry7.o(.ARM.Collect$$rtentry$$00002718)
    __lit__00000000                          0x600024a8   Data           4  __rtentry7.o(.ARM.Collect$$rtentry$$00002718)
    .ARM.Collect$$rtexit$$00000000           0x600024ac   Section        2  rtexit.o(.ARM.Collect$$rtexit$$00000000)
    .ARM.Collect$$rtexit$$00000002           0x600024ae   Section        0  rtexit2.o(.ARM.Collect$$rtexit$$00000002)
    .ARM.Collect$$rtexit$$00000003           0x600024ae   Section        4  rtexit2.o(.ARM.Collect$$rtexit$$00000003)
    .ARM.Collect$$rtexit$$00000004           0x600024b2   Section        6  rtexit2.o(.ARM.Collect$$rtexit$$00000004)
    .emb_text                                0x600024b8   Section      182  port.o(.emb_text)
    $v0                                      0x600024b8   Number         0  port.o(.emb_text)
    .text                                    0x60002570   Section      444  startup_mimxrt1052.o(.text)
    $v0                                      0x60002570   Number         0  startup_mimxrt1052.o(.text)
    .text                                    0x6000272c   Section      238  lludivv7m.o(.text)
    .text                                    0x6000281a   Section        0  atoi.o(.text)
    .text                                    0x60002834   Section        0  strlen.o(.text)
    .text                                    0x60002872   Section      138  rt_memcpy_v6.o(.text)
    .text                                    0x600028fc   Section      132  rt_memmove_v6.o(.text)
    .text                                    0x60002980   Section      100  rt_memcpy_w.o(.text)
    .text                                    0x600029e4   Section       16  aeabi_memset.o(.text)
    .text                                    0x600029f4   Section       68  rt_memclr.o(.text)
    .text                                    0x60002a38   Section       78  rt_memclr_w.o(.text)
    .text                                    0x60002a88   Section        8  rt_errno_addr_intlibspace.o(.text)
    .text                                    0x60002a90   Section        0  strtol.o(.text)
    .text                                    0x60002b00   Section      122  rt_memmove_w.o(.text)
    .text                                    0x60002b7c   Section       16  rt_ctype_table.o(.text)
    .text                                    0x60002b8c   Section        0  _strtoul.o(.text)
    .text                                    0x60002c2a   Section        2  use_no_semi.o(.text)
    .text                                    0x60002c2c   Section        0  indicate_semi.o(.text)
    .text                                    0x60002c2c   Section        8  rt_locale_intlibspace.o(.text)
    .text                                    0x60002c34   Section        0  _chval.o(.text)
    .text                                    0x60002c50   Section        0  exit.o(.text)
    .text                                    0x60002c64   Section        0  sys_exit.o(.text)
    .text                                    0x60002c70   Section      104  strcmpv7m_pel.o(.text)
    i.AutoComplete                           0x60002cd8   Section        0  fsl_shell.o(i.AutoComplete)
    AutoComplete                             0x60002cd9   Thumb Code   182  fsl_shell.o(i.AutoComplete)
    i.BOARD_BootClockGate                    0x60002da8   Section        0  clock_config.o(i.BOARD_BootClockGate)
    BOARD_BootClockGate                      0x60002da9   Thumb Code    40  clock_config.o(i.BOARD_BootClockGate)
    i.BOARD_BootClockRUN                     0x60002de8   Section        0  clock_config.o(i.BOARD_BootClockRUN)
    i.BOARD_ConfigMPU                        0x60002eb4   Section        0  board.o(i.BOARD_ConfigMPU)
    i.BOARD_DebugConsoleSrcFreq              0x60003048   Section        0  board.o(i.BOARD_DebugConsoleSrcFreq)
    i.BOARD_InitDebugConsole                 0x600030bc   Section        0  board.o(i.BOARD_InitDebugConsole)
    i.BOARD_InitPins                         0x600030d8   Section        0  pin_mux.o(i.BOARD_InitPins)
    i.CLOCK_ControlGate                      0x6000340c   Section        0  fsl_lpi2c.o(i.CLOCK_ControlGate)
    CLOCK_ControlGate                        0x6000340d   Thumb Code    60  fsl_lpi2c.o(i.CLOCK_ControlGate)
    i.CLOCK_ControlGate                      0x60003478   Section        0  fsl_lpuart.o(i.CLOCK_ControlGate)
    CLOCK_ControlGate                        0x60003479   Thumb Code    60  fsl_lpuart.o(i.CLOCK_ControlGate)
    i.CLOCK_ControlGate                      0x600034e4   Section        0  fsl_pwm.o(i.CLOCK_ControlGate)
    CLOCK_ControlGate                        0x600034e5   Thumb Code    60  fsl_pwm.o(i.CLOCK_ControlGate)
    i.CLOCK_ControlGate                      0x60003550   Section        0  fsl_xbara.o(i.CLOCK_ControlGate)
    CLOCK_ControlGate                        0x60003551   Thumb Code    60  fsl_xbara.o(i.CLOCK_ControlGate)
    i.CLOCK_DeinitAudioPll                   0x600035bc   Section        0  fsl_clock.o(i.CLOCK_DeinitAudioPll)
    i.CLOCK_DeinitEnetPll                    0x600035cc   Section        0  fsl_clock.o(i.CLOCK_DeinitEnetPll)
    i.CLOCK_DeinitUsb2Pll                    0x600035dc   Section        0  fsl_clock.o(i.CLOCK_DeinitUsb2Pll)
    i.CLOCK_DeinitVideoPll                   0x600035e8   Section        0  fsl_clock.o(i.CLOCK_DeinitVideoPll)
    i.CLOCK_EnableClock                      0x600035f8   Section        0  pin_mux.o(i.CLOCK_EnableClock)
    CLOCK_EnableClock                        0x600035f9   Thumb Code    68  pin_mux.o(i.CLOCK_EnableClock)
    i.CLOCK_EnableClock                      0x6000366c   Section        0  fsl_gpio.o(i.CLOCK_EnableClock)
    CLOCK_EnableClock                        0x6000366d   Thumb Code    68  fsl_gpio.o(i.CLOCK_EnableClock)
    i.CLOCK_EnableClock                      0x600036e0   Section        0  fsl_lpi2c.o(i.CLOCK_EnableClock)
    CLOCK_EnableClock                        0x600036e1   Thumb Code    14  fsl_lpi2c.o(i.CLOCK_EnableClock)
    i.CLOCK_EnableClock                      0x600036f0   Section        0  cleanbot_main.o(i.CLOCK_EnableClock)
    CLOCK_EnableClock                        0x600036f1   Thumb Code    68  cleanbot_main.o(i.CLOCK_EnableClock)
    i.CLOCK_GetDiv                           0x60003764   Section        0  board.o(i.CLOCK_GetDiv)
    CLOCK_GetDiv                             0x60003765   Thumb Code    32  board.o(i.CLOCK_GetDiv)
    i.CLOCK_GetFreq                          0x60003788   Section        0  fsl_clock.o(i.CLOCK_GetFreq)
    i.CLOCK_GetOscFreq                       0x600038f0   Section        0  fsl_clock.o(i.CLOCK_GetOscFreq)
    CLOCK_GetOscFreq                         0x600038f1   Thumb Code    20  fsl_clock.o(i.CLOCK_GetOscFreq)
    i.CLOCK_GetPeriphClkFreq                 0x60003910   Section        0  fsl_clock.o(i.CLOCK_GetPeriphClkFreq)
    CLOCK_GetPeriphClkFreq                   0x60003911   Thumb Code   178  fsl_clock.o(i.CLOCK_GetPeriphClkFreq)
    i.CLOCK_GetPllFreq                       0x600039c8   Section        0  fsl_clock.o(i.CLOCK_GetPllFreq)
    i.CLOCK_GetSysPfdFreq                    0x60003ba4   Section        0  fsl_clock.o(i.CLOCK_GetSysPfdFreq)
    i.CLOCK_GetUsb1PfdFreq                   0x60003c0c   Section        0  fsl_clock.o(i.CLOCK_GetUsb1PfdFreq)
    i.CLOCK_InitArmPll                       0x60003c74   Section        0  fsl_clock.o(i.CLOCK_InitArmPll)
    i.CLOCK_InitUsb1Pll                      0x60003c98   Section        0  fsl_clock.o(i.CLOCK_InitUsb1Pll)
    i.CLOCK_SetDiv                           0x60003cbc   Section        0  clock_config.o(i.CLOCK_SetDiv)
    CLOCK_SetDiv                             0x60003cbd   Thumb Code   100  clock_config.o(i.CLOCK_SetDiv)
    i.CLOCK_SetDiv                           0x60003d64   Section        0  cleanbot_main.o(i.CLOCK_SetDiv)
    CLOCK_SetDiv                             0x60003d65   Thumb Code   100  cleanbot_main.o(i.CLOCK_SetDiv)
    i.CLOCK_SetDiv                           0x60003dd4   Section        0  motor.o(i.CLOCK_SetDiv)
    CLOCK_SetDiv                             0x60003dd5   Thumb Code   100  motor.o(i.CLOCK_SetDiv)
    i.CLOCK_SetMux                           0x60003e7c   Section        0  clock_config.o(i.CLOCK_SetMux)
    CLOCK_SetMux                             0x60003e7d   Thumb Code   100  clock_config.o(i.CLOCK_SetMux)
    i.CLOCK_SetMux                           0x60003f24   Section        0  cleanbot_main.o(i.CLOCK_SetMux)
    CLOCK_SetMux                             0x60003f25   Thumb Code   100  cleanbot_main.o(i.CLOCK_SetMux)
    i.Collision_Detect_Init                  0x60003fb0   Section        0  board.o(i.Collision_Detect_Init)
    i.Collision_Detection_task               0x60004000   Section        0  app.o(i.Collision_Detection_task)
    i.Command_Register                       0x600040b0   Section        0  shell_command.o(i.Command_Register)
    i.ConvertRadixNumToString                0x600040d4   Section        0  fsl_str.o(i.ConvertRadixNumToString)
    ConvertRadixNumToString                  0x600040d5   Thumb Code   168  fsl_str.o(i.ConvertRadixNumToString)
    i.DbgConsole_Getchar                     0x6000417c   Section        0  fsl_debug_console.o(i.DbgConsole_Getchar)
    i.DbgConsole_Init                        0x6000418c   Section        0  fsl_debug_console.o(i.DbgConsole_Init)
    i.DbgConsole_Printf                      0x6000420c   Section        0  fsl_debug_console.o(i.DbgConsole_Printf)
    i.DbgConsole_Putchar                     0x6000424c   Section        0  fsl_debug_console.o(i.DbgConsole_Putchar)
    i.DbgConsole_RelocateLog                 0x60004258   Section        0  fsl_debug_console.o(i.DbgConsole_RelocateLog)
    DbgConsole_RelocateLog                   0x60004259   Thumb Code    62  fsl_debug_console.o(i.DbgConsole_RelocateLog)
    i.EnableIRQ                              0x60004296   Section        0  fsl_lpi2c.o(i.EnableIRQ)
    EnableIRQ                                0x60004297   Thumb Code    44  fsl_lpi2c.o(i.EnableIRQ)
    i.ExitCommand                            0x600042c4   Section        0  fsl_shell.o(i.ExitCommand)
    ExitCommand                              0x600042c5   Thumb Code    24  fsl_shell.o(i.ExitCommand)
    i.FLEXIO1_DriverIRQHandler               0x600042f0   Section        0  fsl_flexio.o(i.FLEXIO1_DriverIRQHandler)
    i.FLEXIO2_DriverIRQHandler               0x600042f8   Section        0  fsl_flexio.o(i.FLEXIO2_DriverIRQHandler)
    i.FLEXIO_CommonIRQHandler                0x60004300   Section        0  fsl_flexio.o(i.FLEXIO_CommonIRQHandler)
    i.GPIO4_Combined_0_15_IRQHandler         0x60004338   Section        0  cleanbot_main.o(i.GPIO4_Combined_0_15_IRQHandler)
    i.GPIO_GetInstance                       0x600043e8   Section        0  fsl_gpio.o(i.GPIO_GetInstance)
    GPIO_GetInstance                         0x600043e9   Thumb Code    48  fsl_gpio.o(i.GPIO_GetInstance)
    i.GPIO_PinInit                           0x60004460   Section        0  fsl_gpio.o(i.GPIO_PinInit)
    i.GPIO_PinRead                           0x600044c4   Section        0  cleanbot_main.o(i.GPIO_PinRead)
    GPIO_PinRead                             0x600044c5   Thumb Code    32  cleanbot_main.o(i.GPIO_PinRead)
    i.GPIO_PinSetInterruptConfig             0x60004510   Section        0  fsl_gpio.o(i.GPIO_PinSetInterruptConfig)
    i.GPIO_PinWrite                          0x6000459c   Section        0  fsl_gpio.o(i.GPIO_PinWrite)
    i.GPIO_PortClear                         0x600045fc   Section        0  app.o(i.GPIO_PortClear)
    GPIO_PortClear                           0x600045fd   Thumb Code     8  app.o(i.GPIO_PortClear)
    i.GPIO_PortClear                         0x60004604   Section        0  motor.o(i.GPIO_PortClear)
    GPIO_PortClear                           0x60004605   Thumb Code     8  motor.o(i.GPIO_PortClear)
    i.GPIO_PortClearInterruptFlags           0x6000460c   Section        0  cleanbot_main.o(i.GPIO_PortClearInterruptFlags)
    GPIO_PortClearInterruptFlags             0x6000460d   Thumb Code     4  cleanbot_main.o(i.GPIO_PortClearInterruptFlags)
    i.GPIO_PortEnableInterrupts              0x60004610   Section        0  app.o(i.GPIO_PortEnableInterrupts)
    GPIO_PortEnableInterrupts                0x60004611   Thumb Code     8  app.o(i.GPIO_PortEnableInterrupts)
    i.GPIO_PortSet                           0x60004618   Section        0  app.o(i.GPIO_PortSet)
    GPIO_PortSet                             0x60004619   Thumb Code     8  app.o(i.GPIO_PortSet)
    i.GPIO_PortSet                           0x60004620   Section        0  motor.o(i.GPIO_PortSet)
    GPIO_PortSet                             0x60004621   Thumb Code     8  motor.o(i.GPIO_PortSet)
    i.GetChar                                0x60004628   Section        0  fsl_shell.o(i.GetChar)
    i.GetHistoryCommand                      0x6000463c   Section        0  fsl_shell.o(i.GetHistoryCommand)
    GetHistoryCommand                        0x6000463d   Thumb Code   120  fsl_shell.o(i.GetHistoryCommand)
    i.HelpCommand                            0x600046b8   Section        0  fsl_shell.o(i.HelpCommand)
    HelpCommand                              0x600046b9   Thumb Code    48  fsl_shell.o(i.HelpCommand)
    i.IOMUXC_SetPinConfig                    0x600046ec   Section        0  pin_mux.o(i.IOMUXC_SetPinConfig)
    IOMUXC_SetPinConfig                      0x600046ed   Thumb Code    12  pin_mux.o(i.IOMUXC_SetPinConfig)
    i.IOMUXC_SetPinMux                       0x600046f8   Section        0  pin_mux.o(i.IOMUXC_SetPinMux)
    IOMUXC_SetPinMux                         0x600046f9   Thumb Code    26  pin_mux.o(i.IOMUXC_SetPinMux)
    i.IO_Init                                0x60004714   Section        0  fsl_io.o(i.IO_Init)
    i.IO_Transfer                            0x600047c8   Section        0  fsl_io.o(i.IO_Transfer)
    i.IR_SENSOR_INIT                         0x6000480c   Section        0  board.o(i.IR_SENSOR_INIT)
    i.LOG_Init                               0x60004850   Section        0  fsl_log.o(i.LOG_Init)
    i.LOG_Pop                                0x60004874   Section        0  fsl_log.o(i.LOG_Pop)
    i.LOG_Push                               0x60004898   Section        0  fsl_log.o(i.LOG_Push)
    i.LOG_ReadCharacter                      0x600048e8   Section        0  fsl_log.o(i.LOG_ReadCharacter)
    i.LOG_ReadOneCharacter                   0x60004944   Section        0  fsl_log.o(i.LOG_ReadOneCharacter)
    LOG_ReadOneCharacter                     0x60004945   Thumb Code    24  fsl_log.o(i.LOG_ReadOneCharacter)
    i.LPI2C1_DriverIRQHandler                0x6000495c   Section        0  fsl_lpi2c.o(i.LPI2C1_DriverIRQHandler)
    i.LPI2C2_DriverIRQHandler                0x6000496c   Section        0  fsl_lpi2c.o(i.LPI2C2_DriverIRQHandler)
    i.LPI2C3_DriverIRQHandler                0x6000497c   Section        0  fsl_lpi2c.o(i.LPI2C3_DriverIRQHandler)
    i.LPI2C_CheckForBusyBus                  0x6000498c   Section        0  fsl_lpi2c.o(i.LPI2C_CheckForBusyBus)
    i.LPI2C_CommonIRQHandler                 0x600049b0   Section        0  fsl_lpi2c.o(i.LPI2C_CommonIRQHandler)
    LPI2C_CommonIRQHandler                   0x600049b1   Thumb Code    66  fsl_lpi2c.o(i.LPI2C_CommonIRQHandler)
    i.LPI2C_GetCyclesForWidth                0x60004a04   Section        0  fsl_lpi2c.o(i.LPI2C_GetCyclesForWidth)
    LPI2C_GetCyclesForWidth                  0x60004a05   Thumb Code    58  fsl_lpi2c.o(i.LPI2C_GetCyclesForWidth)
    i.LPI2C_GetInstance                      0x60004a44   Section        0  fsl_lpi2c.o(i.LPI2C_GetInstance)
    i.LPI2C_InitTransferStateMachine         0x60004a98   Section        0  fsl_lpi2c.o(i.LPI2C_InitTransferStateMachine)
    LPI2C_InitTransferStateMachine           0x60004a99   Thumb Code   194  fsl_lpi2c.o(i.LPI2C_InitTransferStateMachine)
    i.LPI2C_MasterCheckAndClearError         0x60004b5c   Section        0  fsl_lpi2c.o(i.LPI2C_MasterCheckAndClearError)
    i.LPI2C_MasterClearStatusFlags           0x60004be8   Section        0  fsl_lpi2c.o(i.LPI2C_MasterClearStatusFlags)
    LPI2C_MasterClearStatusFlags             0x60004be9   Thumb Code     4  fsl_lpi2c.o(i.LPI2C_MasterClearStatusFlags)
    i.LPI2C_MasterDisableInterrupts          0x60004bec   Section        0  fsl_lpi2c.o(i.LPI2C_MasterDisableInterrupts)
    LPI2C_MasterDisableInterrupts            0x60004bed   Thumb Code     8  fsl_lpi2c.o(i.LPI2C_MasterDisableInterrupts)
    i.LPI2C_MasterEnable                     0x60004bf4   Section        0  fsl_lpi2c.o(i.LPI2C_MasterEnable)
    LPI2C_MasterEnable                       0x60004bf5   Thumb Code    10  fsl_lpi2c.o(i.LPI2C_MasterEnable)
    i.LPI2C_MasterEnableInterrupts           0x60004bfe   Section        0  fsl_lpi2c.o(i.LPI2C_MasterEnableInterrupts)
    LPI2C_MasterEnableInterrupts             0x60004bff   Thumb Code     8  fsl_lpi2c.o(i.LPI2C_MasterEnableInterrupts)
    i.LPI2C_MasterGetDefaultConfig           0x60004c08   Section        0  fsl_lpi2c.o(i.LPI2C_MasterGetDefaultConfig)
    i.LPI2C_MasterGetFifoCounts              0x60004c38   Section        0  fsl_lpi2c.o(i.LPI2C_MasterGetFifoCounts)
    LPI2C_MasterGetFifoCounts                0x60004c39   Thumb Code    22  fsl_lpi2c.o(i.LPI2C_MasterGetFifoCounts)
    i.LPI2C_MasterGetStatusFlags             0x60004c4e   Section        0  fsl_lpi2c.o(i.LPI2C_MasterGetStatusFlags)
    LPI2C_MasterGetStatusFlags               0x60004c4f   Thumb Code     6  fsl_lpi2c.o(i.LPI2C_MasterGetStatusFlags)
    i.LPI2C_MasterInit                       0x60004c54   Section        0  fsl_lpi2c.o(i.LPI2C_MasterInit)
    i.LPI2C_MasterReceive                    0x60004d8c   Section        0  fsl_lpi2c.o(i.LPI2C_MasterReceive)
    i.LPI2C_MasterReset                      0x60004e2c   Section        0  fsl_lpi2c.o(i.LPI2C_MasterReset)
    LPI2C_MasterReset                        0x60004e2d   Thumb Code    10  fsl_lpi2c.o(i.LPI2C_MasterReset)
    i.LPI2C_MasterSend                       0x60004e38   Section        0  fsl_lpi2c.o(i.LPI2C_MasterSend)
    i.LPI2C_MasterSetBaudRate                0x60004ea8   Section        0  fsl_lpi2c.o(i.LPI2C_MasterSetBaudRate)
    i.LPI2C_MasterStart                      0x60004fcc   Section        0  fsl_lpi2c.o(i.LPI2C_MasterStart)
    i.LPI2C_MasterStop                       0x60005014   Section        0  fsl_lpi2c.o(i.LPI2C_MasterStop)
    i.LPI2C_MasterTransferCreateHandle       0x60005060   Section        0  fsl_lpi2c.o(i.LPI2C_MasterTransferCreateHandle)
    i.LPI2C_MasterTransferHandleIRQ          0x600050ec   Section        0  fsl_lpi2c.o(i.LPI2C_MasterTransferHandleIRQ)
    i.LPI2C_MasterTransferNonBlocking        0x60005134   Section        0  fsl_lpi2c.o(i.LPI2C_MasterTransferNonBlocking)
    i.LPI2C_MasterWaitForTxReady             0x60005238   Section        0  fsl_lpi2c.o(i.LPI2C_MasterWaitForTxReady)
    LPI2C_MasterWaitForTxReady               0x60005239   Thumb Code    58  fsl_lpi2c.o(i.LPI2C_MasterWaitForTxReady)
    i.LPI2C_RTOS_Callback                    0x60005274   Section        0  fsl_lpi2c_freertos.o(i.LPI2C_RTOS_Callback)
    LPI2C_RTOS_Callback                      0x60005275   Thumb Code    46  fsl_lpi2c_freertos.o(i.LPI2C_RTOS_Callback)
    i.LPI2C_RTOS_Init                        0x600052a8   Section        0  fsl_lpi2c_freertos.o(i.LPI2C_RTOS_Init)
    i.LPI2C_RTOS_Transfer                    0x60005314   Section        0  fsl_lpi2c_freertos.o(i.LPI2C_RTOS_Transfer)
    i.LPI2C_RunTransferStateMachine          0x6000536c   Section        0  fsl_lpi2c.o(i.LPI2C_RunTransferStateMachine)
    LPI2C_RunTransferStateMachine            0x6000536d   Thumb Code   374  fsl_lpi2c.o(i.LPI2C_RunTransferStateMachine)
    i.LPUART1_DriverIRQHandler               0x6000550c   Section        0  fsl_lpuart.o(i.LPUART1_DriverIRQHandler)
    i.LPUART2_DriverIRQHandler               0x60005528   Section        0  fsl_lpuart.o(i.LPUART2_DriverIRQHandler)
    i.LPUART3_DriverIRQHandler               0x60005544   Section        0  fsl_lpuart.o(i.LPUART3_DriverIRQHandler)
    i.LPUART4_DriverIRQHandler               0x60005560   Section        0  fsl_lpuart.o(i.LPUART4_DriverIRQHandler)
    i.LPUART5_DriverIRQHandler               0x6000557c   Section        0  fsl_lpuart.o(i.LPUART5_DriverIRQHandler)
    i.LPUART6_DriverIRQHandler               0x60005598   Section        0  fsl_lpuart.o(i.LPUART6_DriverIRQHandler)
    i.LPUART7_DriverIRQHandler               0x600055b4   Section        0  fsl_lpuart.o(i.LPUART7_DriverIRQHandler)
    i.LPUART8_DriverIRQHandler               0x600055d0   Section        0  fsl_lpuart.o(i.LPUART8_DriverIRQHandler)
    i.LPUART_ClearStatusFlags                0x600055ec   Section        0  fsl_lpuart.o(i.LPUART_ClearStatusFlags)
    i.LPUART_GetDefaultConfig                0x60005644   Section        0  fsl_lpuart.o(i.LPUART_GetDefaultConfig)
    i.LPUART_GetInstance                     0x600056a8   Section        0  fsl_lpuart.o(i.LPUART_GetInstance)
    i.LPUART_GetStatusFlags                  0x60005724   Section        0  fsl_lpuart.o(i.LPUART_GetStatusFlags)
    i.LPUART_Init                            0x60005734   Section        0  fsl_lpuart.o(i.LPUART_Init)
    i.LPUART_ReadBlocking                    0x60005a20   Section        0  fsl_lpuart.o(i.LPUART_ReadBlocking)
    i.LPUART_WriteBlocking                   0x60005b1c   Section        0  fsl_lpuart.o(i.LPUART_WriteBlocking)
    i.L_MOTOR_CTRL                           0x60005b7c   Section        0  motor.o(i.L_MOTOR_CTRL)
    i.L_MOTOR_task                           0x60005bbc   Section        0  app.o(i.L_MOTOR_task)
    i.LedControl                             0x60005bc8   Section        0  shell_command.o(i.LedControl)
    i.PWM_Control                            0x60005c08   Section        0  shell_command.o(i.PWM_Control)
    i.PWM_DRV_Init                           0x60005cdc   Section        0  motor.o(i.PWM_DRV_Init)
    i.PWM_GetDefaultConfig                   0x60005e78   Section        0  fsl_pwm.o(i.PWM_GetDefaultConfig)
    i.PWM_GetInstance                        0x60005ecc   Section        0  fsl_pwm.o(i.PWM_GetInstance)
    PWM_GetInstance                          0x60005ecd   Thumb Code    48  fsl_pwm.o(i.PWM_GetInstance)
    i.PWM_Init                               0x60005f40   Section        0  fsl_pwm.o(i.PWM_Init)
    i.PWM_SetPwmLdok                         0x60006108   Section        0  motor.o(i.PWM_SetPwmLdok)
    PWM_SetPwmLdok                           0x60006109   Thumb Code    38  motor.o(i.PWM_SetPwmLdok)
    i.PWM_SetupPwm                           0x60006130   Section        0  fsl_pwm.o(i.PWM_SetupPwm)
    i.PWM_UpdatePwmDutycycle                 0x600064b0   Section        0  fsl_pwm.o(i.PWM_UpdatePwmDutycycle)
    i.ParseLine                              0x600066f4   Section        0  fsl_shell.o(i.ParseLine)
    ParseLine                                0x600066f5   Thumb Code   136  fsl_shell.o(i.ParseLine)
    i.ProcessCommand                         0x60006780   Section        0  fsl_shell.o(i.ProcessCommand)
    ProcessCommand                           0x60006781   Thumb Code   422  fsl_shell.o(i.ProcessCommand)
    i.R_MOTOR_CTRL                           0x6000693c   Section        0  motor.o(i.R_MOTOR_CTRL)
    i.R_MOTOR_task                           0x6000697c   Section        0  app.o(i.R_MOTOR_task)
    i.Route_Planning_task                    0x60006988   Section        0  app.o(i.Route_Planning_task)
    i.SCB_DisableDCache                      0x60006adc   Section        0  board.o(i.SCB_DisableDCache)
    SCB_DisableDCache                        0x60006add   Thumb Code   150  board.o(i.SCB_DisableDCache)
    i.SCB_EnableDCache                       0x60006b7c   Section        0  board.o(i.SCB_EnableDCache)
    SCB_EnableDCache                         0x60006b7d   Thumb Code   148  board.o(i.SCB_EnableDCache)
    i.SCB_EnableDCache                       0x60006c18   Section        0  system_mimxrt1052.o(i.SCB_EnableDCache)
    SCB_EnableDCache                         0x60006c19   Thumb Code   148  system_mimxrt1052.o(i.SCB_EnableDCache)
    i.SCB_EnableICache                       0x60006cb4   Section        0  board.o(i.SCB_EnableICache)
    SCB_EnableICache                         0x60006cb5   Thumb Code   116  board.o(i.SCB_EnableICache)
    i.SCB_EnableICache                       0x60006d30   Section        0  system_mimxrt1052.o(i.SCB_EnableICache)
    SCB_EnableICache                         0x60006d31   Thumb Code   116  system_mimxrt1052.o(i.SCB_EnableICache)
    i.SDRAM_Init                             0x60006dac   Section        0  system_mimxrt1052.o(i.SDRAM_Init)
    i.SDRAM_WaitIpCmdDone                    0x60006db8   Section        0  system_mimxrt1052.o(i.SDRAM_WaitIpCmdDone)
    i.SHELL_Init                             0x60006dd4   Section        0  fsl_shell.o(i.SHELL_Init)
    i.SHELL_Main                             0x60006eb4   Section        0  fsl_shell.o(i.SHELL_Main)
    i.SHELL_ReceiveDataCallback              0x600071cc   Section        0  shell_command.o(i.SHELL_ReceiveDataCallback)
    i.SHELL_RegisterCommand                  0x600071e8   Section        0  fsl_shell.o(i.SHELL_RegisterCommand)
    i.SHELL_SendDataCallback                 0x6000721c   Section        0  shell_command.o(i.SHELL_SendDataCallback)
    i.Shell_task                             0x60007238   Section        0  app.o(i.Shell_task)
    i.StateLED_task                          0x60007278   Section        0  app.o(i.StateLED_task)
    i.StrCompare                             0x600072e0   Section        0  fsl_shell.o(i.StrCompare)
    StrCompare                               0x600072e1   Thumb Code    42  fsl_shell.o(i.StrCompare)
    i.StrCopy                                0x6000730a   Section        0  fsl_shell.o(i.StrCopy)
    StrCopy                                  0x6000730b   Thumb Code    26  fsl_shell.o(i.StrCopy)
    i.StrFormatPrintf                        0x60007324   Section        0  fsl_str.o(i.StrFormatPrintf)
    i.StrLen                                 0x60007552   Section        0  fsl_shell.o(i.StrLen)
    StrLen                                   0x60007553   Thumb Code    18  fsl_shell.o(i.StrLen)
    i.SysTick_Handler                        0x60007564   Section        0  port.o(i.SysTick_Handler)
    i.SystemCoreClockUpdate                  0x60007598   Section        0  system_mimxrt1052.o(i.SystemCoreClockUpdate)
    i.SystemInit                             0x600076c8   Section        0  system_mimxrt1052.o(i.SystemInit)
    i.TaskDelay_ms                           0x6000775c   Section        0  common.o(i.TaskDelay_ms)
    i.VL53L0X_Control                        0x60007768   Section        0  shell_command.o(i.VL53L0X_Control)
    i.VL53L0X_Init                           0x60007824   Section        0  vl53l0x.o(i.VL53L0X_Init)
    i.VL53L0X_Read_Buf                       0x600078f0   Section        0  vl53l0x.o(i.VL53L0X_Read_Buf)
    i.VL53L0X_Read_Byte                      0x60007948   Section        0  vl53l0x.o(i.VL53L0X_Read_Byte)
    i.VL53L0X_Write_Byte                     0x600079c4   Section        0  vl53l0x.o(i.VL53L0X_Write_Byte)
    i.VL53L0X_task                           0x60007a04   Section        0  app.o(i.VL53L0X_task)
    i.XBARA_GetInstance                      0x60007c00   Section        0  fsl_xbara.o(i.XBARA_GetInstance)
    XBARA_GetInstance                        0x60007c01   Thumb Code    46  fsl_xbara.o(i.XBARA_GetInstance)
    i.XBARA_Init                             0x60007c78   Section        0  fsl_xbara.o(i.XBARA_Init)
    i.XBARA_SetSignalsConnection             0x60007c98   Section        0  fsl_xbara.o(i.XBARA_SetSignalsConnection)
    i._RDWORD                                0x60007cc2   Section        0  system_mimxrt1052.o(i._RDWORD)
    _RDWORD                                  0x60007cc3   Thumb Code     6  system_mimxrt1052.o(i._RDWORD)
    i._WDWORD                                0x60007cc8   Section        0  system_mimxrt1052.o(i._WDWORD)
    _WDWORD                                  0x60007cc9   Thumb Code     4  system_mimxrt1052.o(i._WDWORD)
    i.__aeabi_assert                         0x60007ccc   Section        0  fsl_assert.o(i.__aeabi_assert)
    i._clock_init                            0x60007d10   Section        0  system_mimxrt1052.o(i._clock_init)
    i._sdr_Init                              0x60007d94   Section        0  system_mimxrt1052.o(i._sdr_Init)
    i.hello_task                             0x6000828c   Section        0  app.o(i.hello_task)
    i.main                                   0x600086c4   Section        0  cleanbot_main.o(i.main)
    i.makeuint16                             0x60008858   Section        0  vl53l0x.o(i.makeuint16)
    i.prvAddCurrentTaskToDelayedList         0x60008864   Section        0  tasks.o(i.prvAddCurrentTaskToDelayedList)
    prvAddCurrentTaskToDelayedList           0x60008865   Thumb Code   124  tasks.o(i.prvAddCurrentTaskToDelayedList)
    i.prvAddNewTaskToReadyList               0x600088fc   Section        0  tasks.o(i.prvAddNewTaskToReadyList)
    prvAddNewTaskToReadyList                 0x600088fd   Thumb Code   156  tasks.o(i.prvAddNewTaskToReadyList)
    i.prvCheckForValidListAndQueue           0x600089b4   Section        0  timers.o(i.prvCheckForValidListAndQueue)
    prvCheckForValidListAndQueue             0x600089b5   Thumb Code    72  timers.o(i.prvCheckForValidListAndQueue)
    i.prvCheckTasksWaitingTermination        0x60008a18   Section        0  tasks.o(i.prvCheckTasksWaitingTermination)
    prvCheckTasksWaitingTermination          0x60008a19   Thumb Code    86  tasks.o(i.prvCheckTasksWaitingTermination)
    i.prvCopyDataFromQueue                   0x60008a7c   Section        0  queue.o(i.prvCopyDataFromQueue)
    prvCopyDataFromQueue                     0x60008a7d   Thumb Code    42  queue.o(i.prvCopyDataFromQueue)
    i.prvCopyDataToQueue                     0x60008aa6   Section        0  queue.o(i.prvCopyDataToQueue)
    prvCopyDataToQueue                       0x60008aa7   Thumb Code   124  queue.o(i.prvCopyDataToQueue)
    i.prvDeleteTCB                           0x60008b22   Section        0  tasks.o(i.prvDeleteTCB)
    prvDeleteTCB                             0x60008b23   Thumb Code    18  tasks.o(i.prvDeleteTCB)
    i.prvGetNextExpireTime                   0x60008b34   Section        0  timers.o(i.prvGetNextExpireTime)
    prvGetNextExpireTime                     0x60008b35   Thumb Code    36  timers.o(i.prvGetNextExpireTime)
    i.prvHeapInit                            0x60008b5c   Section        0  heap_4.o(i.prvHeapInit)
    prvHeapInit                              0x60008b5d   Thumb Code    98  heap_4.o(i.prvHeapInit)
    i.prvIdleTask                            0x60008bd8   Section        0  tasks.o(i.prvIdleTask)
    prvIdleTask                              0x60008bd9   Thumb Code    32  tasks.o(i.prvIdleTask)
    i.prvInitialiseMutex                     0x60008c00   Section        0  queue.o(i.prvInitialiseMutex)
    prvInitialiseMutex                       0x60008c01   Thumb Code    28  queue.o(i.prvInitialiseMutex)
    i.prvInitialiseNewQueue                  0x60008c1c   Section        0  queue.o(i.prvInitialiseNewQueue)
    prvInitialiseNewQueue                    0x60008c1d   Thumb Code    42  queue.o(i.prvInitialiseNewQueue)
    i.prvInitialiseNewTask                   0x60008c46   Section        0  tasks.o(i.prvInitialiseNewTask)
    prvInitialiseNewTask                     0x60008c47   Thumb Code   206  tasks.o(i.prvInitialiseNewTask)
    i.prvInitialiseTaskLists                 0x60008d14   Section        0  tasks.o(i.prvInitialiseTaskLists)
    prvInitialiseTaskLists                   0x60008d15   Thumb Code    70  tasks.o(i.prvInitialiseTaskLists)
    i.prvInsertBlockIntoFreeList             0x60008d7c   Section        0  heap_4.o(i.prvInsertBlockIntoFreeList)
    prvInsertBlockIntoFreeList               0x60008d7d   Thumb Code    96  heap_4.o(i.prvInsertBlockIntoFreeList)
    i.prvInsertTimerInActiveList             0x60008de4   Section        0  timers.o(i.prvInsertTimerInActiveList)
    prvInsertTimerInActiveList               0x60008de5   Thumb Code    80  timers.o(i.prvInsertTimerInActiveList)
    i.prvIsQueueEmpty                        0x60008e3c   Section        0  queue.o(i.prvIsQueueEmpty)
    prvIsQueueEmpty                          0x60008e3d   Thumb Code    26  queue.o(i.prvIsQueueEmpty)
    i.prvIsQueueFull                         0x60008e56   Section        0  queue.o(i.prvIsQueueFull)
    prvIsQueueFull                           0x60008e57   Thumb Code    30  queue.o(i.prvIsQueueFull)
    i.prvProcessExpiredTimer                 0x60008e74   Section        0  timers.o(i.prvProcessExpiredTimer)
    prvProcessExpiredTimer                   0x60008e75   Thumb Code    94  timers.o(i.prvProcessExpiredTimer)
    i.prvProcessReceivedCommands             0x60008ed8   Section        0  timers.o(i.prvProcessReceivedCommands)
    prvProcessReceivedCommands               0x60008ed9   Thumb Code   286  timers.o(i.prvProcessReceivedCommands)
    i.prvProcessTimerOrBlockTask             0x60008ffc   Section        0  timers.o(i.prvProcessTimerOrBlockTask)
    prvProcessTimerOrBlockTask               0x60008ffd   Thumb Code   102  timers.o(i.prvProcessTimerOrBlockTask)
    i.prvResetNextTaskUnblockTime            0x60009070   Section        0  tasks.o(i.prvResetNextTaskUnblockTime)
    prvResetNextTaskUnblockTime              0x60009071   Thumb Code    42  tasks.o(i.prvResetNextTaskUnblockTime)
    i.prvSampleTimeNow                       0x600090a4   Section        0  timers.o(i.prvSampleTimeNow)
    prvSampleTimeNow                         0x600090a5   Thumb Code    40  timers.o(i.prvSampleTimeNow)
    i.prvSwitchTimerLists                    0x600090d0   Section        0  timers.o(i.prvSwitchTimerLists)
    prvSwitchTimerLists                      0x600090d1   Thumb Code   150  timers.o(i.prvSwitchTimerLists)
    i.prvTaskExitError                       0x60009170   Section        0  port.o(i.prvTaskExitError)
    prvTaskExitError                         0x60009171   Thumb Code    60  port.o(i.prvTaskExitError)
    i.prvTimerTask                           0x600091b0   Section        0  timers.o(i.prvTimerTask)
    prvTimerTask                             0x600091b1   Thumb Code    26  timers.o(i.prvTimerTask)
    i.prvUnlockQueue                         0x600091ca   Section        0  queue.o(i.prvUnlockQueue)
    prvUnlockQueue                           0x600091cb   Thumb Code   126  queue.o(i.prvUnlockQueue)
    i.pvPortMalloc                           0x60009248   Section        0  heap_4.o(i.pvPortMalloc)
    i.pvTaskIncrementMutexHeldCount          0x60009384   Section        0  tasks.o(i.pvTaskIncrementMutexHeldCount)
    i.pxPortInitialiseStack                  0x600093a4   Section        0  port.o(i.pxPortInitialiseStack)
    i.uxListRemove                           0x600093d0   Section        0  list.o(i.uxListRemove)
    i.vListInitialise                        0x600093f8   Section        0  list.o(i.vListInitialise)
    i.vListInitialiseItem                    0x60009412   Section        0  list.o(i.vListInitialiseItem)
    i.vListInsert                            0x60009418   Section        0  list.o(i.vListInsert)
    i.vListInsertEnd                         0x6000944c   Section        0  list.o(i.vListInsertEnd)
    i.vPortEnterCritical                     0x60009464   Section        0  port.o(i.vPortEnterCritical)
    i.vPortExitCritical                      0x600094b8   Section        0  port.o(i.vPortExitCritical)
    i.vPortFree                              0x600094f4   Section        0  heap_4.o(i.vPortFree)
    i.vPortSetupTimerInterrupt               0x60009588   Section        0  fsl_tickless_systick.o(i.vPortSetupTimerInterrupt)
    i.vPortValidateInterruptPriority         0x600095a8   Section        0  port.o(i.vPortValidateInterruptPriority)
    i.vQueueAddToRegistry                    0x60009620   Section        0  queue.o(i.vQueueAddToRegistry)
    i.vQueueDelete                           0x6000964c   Section        0  queue.o(i.vQueueDelete)
    i.vQueueUnregisterQueue                  0x60009678   Section        0  queue.o(i.vQueueUnregisterQueue)
    i.vQueueWaitForMessageRestricted         0x600096a8   Section        0  queue.o(i.vQueueWaitForMessageRestricted)
    i.vTaskDelay                             0x600096f4   Section        0  tasks.o(i.vTaskDelay)
    i.vTaskMissedYield                       0x60009750   Section        0  tasks.o(i.vTaskMissedYield)
    i.vTaskPlaceOnEventList                  0x6000975c   Section        0  tasks.o(i.vTaskPlaceOnEventList)
    i.vTaskPlaceOnEventListRestricted        0x60009794   Section        0  tasks.o(i.vTaskPlaceOnEventListRestricted)
    i.vTaskPriorityInherit                   0x600097d4   Section        0  tasks.o(i.vTaskPriorityInherit)
    i.vTaskSetTimeOutState                   0x60009884   Section        0  tasks.o(i.vTaskSetTimeOutState)
    i.vTaskStartScheduler                    0x600098b4   Section        0  tasks.o(i.vTaskStartScheduler)
    i.vTaskSuspend                           0x60009948   Section        0  tasks.o(i.vTaskSuspend)
    i.vTaskSuspendAll                        0x60009a2c   Section        0  tasks.o(i.vTaskSuspendAll)
    i.vTaskSwitchContext                     0x60009a3c   Section        0  tasks.o(i.vTaskSwitchContext)
    i.xPortStartScheduler                    0x60009ac8   Section        0  port.o(i.xPortStartScheduler)
    i.xQueueCreateMutex                      0x60009c04   Section        0  queue.o(i.xQueueCreateMutex)
    i.xQueueGenericCreate                    0x60009c26   Section        0  queue.o(i.xQueueGenericCreate)
    i.xQueueGenericReceive                   0x60009c80   Section        0  queue.o(i.xQueueGenericReceive)
    i.xQueueGenericReset                     0x60009e44   Section        0  queue.o(i.xQueueGenericReset)
    i.xQueueGenericSend                      0x60009edc   Section        0  queue.o(i.xQueueGenericSend)
    i.xQueueGenericSendFromISR               0x6000a084   Section        0  queue.o(i.xQueueGenericSendFromISR)
    i.xQueueGiveFromISR                      0x6000a17c   Section        0  queue.o(i.xQueueGiveFromISR)
    i.xTaskCheckForTimeOut                   0x6000a25c   Section        0  tasks.o(i.xTaskCheckForTimeOut)
    i.xTaskCreate                            0x6000a2e8   Section        0  tasks.o(i.xTaskCreate)
    i.xTaskGetSchedulerState                 0x6000a348   Section        0  tasks.o(i.xTaskGetSchedulerState)
    i.xTaskGetTickCount                      0x6000a368   Section        0  tasks.o(i.xTaskGetTickCount)
    i.xTaskIncrementTick                     0x6000a374   Section        0  tasks.o(i.xTaskIncrementTick)
    i.xTaskPriorityDisinherit                0x6000a4a0   Section        0  tasks.o(i.xTaskPriorityDisinherit)
    i.xTaskRemoveFromEventList               0x6000a568   Section        0  tasks.o(i.xTaskRemoveFromEventList)
    i.xTaskResumeAll                         0x6000a600   Section        0  tasks.o(i.xTaskResumeAll)
    i.xTimerCreateTimerTask                  0x6000a704   Section        0  timers.o(i.xTimerCreateTimerTask)
    i.xTimerGenericCommand                   0x6000a758   Section        0  timers.o(i.xTimerGenericCommand)
    locale$$code                             0x6000a7dc   Section       44  lc_ctype_c.o(locale$$code)
    x$fpl$fpinit                             0x6000a808   Section       10  fpinit.o(x$fpl$fpinit)
    $v0                                      0x6000a808   Number         0  fpinit.o(x$fpl$fpinit)
    .constdata                               0x6000a814   Section        7  board.o(.constdata)
    .constdata                               0x6000a81c   Section       17  clock_config.o(.constdata)
    .constdata                               0x6000a830   Section       16  fsl_clock.o(.constdata)
    .constdata                               0x6000a840   Section       36  fsl_gpio.o(.constdata)
    s_gpioBases                              0x6000a840   Data          24  fsl_gpio.o(.constdata)
    s_gpioClock                              0x6000a858   Data          12  fsl_gpio.o(.constdata)
    .constdata                               0x6000a864   Section       40  fsl_lpi2c.o(.constdata)
    kLpi2cBases                              0x6000a864   Data          20  fsl_lpi2c.o(.constdata)
    kLpi2cIrqs                               0x6000a878   Data          10  fsl_lpi2c.o(.constdata)
    kLpi2cClocks                             0x6000a882   Data          10  fsl_lpi2c.o(.constdata)
    .constdata                               0x6000a88c   Section       72  fsl_lpuart.o(.constdata)
    s_lpuartBases                            0x6000a88c   Data          36  fsl_lpuart.o(.constdata)
    s_lpuartIRQ                              0x6000a8b0   Data          18  fsl_lpuart.o(.constdata)
    s_lpuartClock                            0x6000a8c2   Data          18  fsl_lpuart.o(.constdata)
    .constdata                               0x6000a8d4   Section       60  fsl_pwm.o(.constdata)
    s_pwmBases                               0x6000a8d4   Data          20  fsl_pwm.o(.constdata)
    s_pwmClocks                              0x6000a8e8   Data          40  fsl_pwm.o(.constdata)
    .constdata                               0x6000a910   Section        6  fsl_xbara.o(.constdata)
    s_xbaraBases                             0x6000a910   Data           4  fsl_xbara.o(.constdata)
    s_xbaraClock                             0x6000a914   Data           2  fsl_xbara.o(.constdata)
    .constdata                               0x6000a916   Section       16  tasks.o(.constdata)
    __tagsym$$used                           0x6000a916   Number         0  tasks.o(.constdata)
    .constdata                               0x6000a928   Section       32  fsl_shell.o(.constdata)
    xHelpCommand                             0x6000a928   Data          16  fsl_shell.o(.constdata)
    xExitCommand                             0x6000a938   Data          16  fsl_shell.o(.constdata)
    .constdata                               0x6000a948   Section       48  shell_command.o(.constdata)
    xLedCommand                              0x6000a948   Data          16  shell_command.o(.constdata)
    PWMCommand                               0x6000a958   Data          16  shell_command.o(.constdata)
    VL53L0X_Command                          0x6000a968   Data          16  shell_command.o(.constdata)
    .conststring                             0x6000a978   Section      265  fsl_shell.o(.conststring)
    .conststring                             0x6000aa84   Section      296  shell_command.o(.conststring)
    locale$$data                             0x6000abcc   Section      272  lc_ctype_c.o(locale$$data)
    __lcctype_c_name                         0x6000abd0   Data           2  lc_ctype_c.o(locale$$data)
    __lcctype_c_start                        0x6000abd8   Data           0  lc_ctype_c.o(locale$$data)
    __lcctype_c_end                          0x6000acdc   Data           0  lc_ctype_c.o(locale$$data)

    Global Symbols

    Symbol Name                              Value     Ov Type        Size  Object(Section)

    BuildAttributes$$THM_ISAv4$E$P$D$K$B$S$7EM$VFPi5$EXTD16$VFPS$VFMA$PE$PLD8$A:L22UL41UL21$X:L11$S22US41US21$IEEE1$IW$USESV6$~STKCKD$USESV7$~SHL$OTIME$ROPI$EBA8$UX$STANDARDLIB$REQ8$PRES8$EABIv2 0x00000000   Number         0  anon$$obj.o ABSOLUTE
    __ARM_use_no_argv                        0x00000000   Number         0  cleanbot_main.o ABSOLUTE
    Image$$ZI$$Limit                          - Undefined Weak Reference
    __ARM_exceptions_init                     - Undefined Weak Reference
    __alloca_initialize                       - Undefined Weak Reference
    __arm_preinit_                            - Undefined Weak Reference
    __cpp_initialize__aeabi_                  - Undefined Weak Reference
    __cxa_finalize                            - Undefined Weak Reference
    __sigvec_lookup                           - Undefined Weak Reference
    __user_heap_extent                        - Undefined Weak Reference
    _atexit_init                              - Undefined Weak Reference
    _call_atexit_fns                          - Undefined Weak Reference
    _fp_trap_init                             - Undefined Weak Reference
    _fp_trap_shutdown                         - Undefined Weak Reference
    _get_lc_collate                           - Undefined Weak Reference
    _get_lc_monetary                          - Undefined Weak Reference
    _get_lc_numeric                           - Undefined Weak Reference
    _get_lc_time                              - Undefined Weak Reference
    _getenv_init                              - Undefined Weak Reference
    _handle_redirection                       - Undefined Weak Reference
    _initio                                   - Undefined Weak Reference
    _mutex_acquire                            - Undefined Weak Reference
    _mutex_free                               - Undefined Weak Reference
    _mutex_release                            - Undefined Weak Reference
    _rand_init                                - Undefined Weak Reference
    _signal_finish                            - Undefined Weak Reference
    _signal_init                              - Undefined Weak Reference
    _terminateio                              - Undefined Weak Reference
    __Vectors_Size                           0x00000400   Number         0  startup_mimxrt1052.o ABSOLUTE
    g_xtalFreq                               0x20000000   Data           4  fsl_clock.o(.data)
    g_rtcXtalFreq                            0x20000004   Data           4  fsl_clock.o(.data)
    pxCurrentTCB                             0x2000002c   Data           4  tasks.o(.data)
    SystemCoreClock                          0x200000a0   Data           4  system_mimxrt1052.o(.data)
    L_Speed                                  0x200000b8   Data           1  app.o(.data)
    R_Speed                                  0x200000b9   Data           1  app.o(.data)
    L_Near                                   0x200000ba   Data           1  app.o(.data)
    R_Near                                   0x200000bb   Data           1  app.o(.data)
    U_Turn                                   0x200000bc   Data           1  app.o(.data)
    Close_Flag                               0x200000bd   Data           1  app.o(.data)
    Start_Signal                             0x200000be   Data           1  common.o(.data)
    Crash_L                                  0x200000bf   Data           1  common.o(.data)
    Crash_R                                  0x200000c0   Data           1  common.o(.data)
    Dis_State                                0x200000c1   Data           1  common.o(.data)
    Dis_ambient                              0x200000c2   Data           1  common.o(.data)
    Dis_signal                               0x200000c3   Data           1  common.o(.data)
    Distance                                 0x200000c4   Data           2  common.o(.data)
    g_MasterCompletionFlag                   0x200000c8   Data           1  vl53l0x.o(.data)
    reVal                                    0x200000cc   Data           4  vl53l0x.o(.data)
    g_master_txBuff                          0x200000d0   Data           1  vl53l0x.o(.data)
    val                                      0x200000d1   Data           1  vl53l0x.o(.data)
    Rcv_flag                                 0x200000d2   Data           1  vl53l0x.o(.data)
    count                                    0x200000d4   Data           6  vl53l0x.o(.data)
    xQueueRegistry                           0x20000120   Data          64  queue.o(.bss)
    rtos_lpi2c_config                        0x20002b48   Data          72  vl53l0x.o(.bss)
    g_m_handle                               0x20002b90   Data          56  vl53l0x.o(.bss)
    masterConfig                             0x20002bc8   Data          28  vl53l0x.o(.bss)
    VL53L0X_Transfer_Config                  0x20002be4   Data          24  vl53l0x.o(.bss)
    gbuf                                     0x20002bfc   Data          16  vl53l0x.o(.bss)
    __libspace_start                         0x20002c0c   Data          96  libspace.o(.bss)
    Image$$ARM_LIB_HEAP$$ZI$$Base            0x20002c6c   Number         0  anon$$obj.o ABSOLUTE
    __temporary_stack_top$libspace           0x20002c6c   Data           0  libspace.o(.bss)
    Image$$ARM_LIB_HEAP$$ZI$$Limit           0x2000306c   Number         0  anon$$obj.o ABSOLUTE
    Image$$ARM_LIB_STACK$$ZI$$Limit          0x20020000   Number         0  anon$$obj.o ABSOLUTE
    __Vectors                                0x60002000   Data           4  startup_mimxrt1052.o(RESET)
    __Vectors_End                            0x60002400   Data           0  startup_mimxrt1052.o(RESET)
    __main                                   0x60002401   Thumb Code     8  __main.o(!!!main)
    __scatterload                            0x60002409   Thumb Code     0  __scatter.o(!!!scatter)
    __scatterload_rt2                        0x60002409   Thumb Code    44  __scatter.o(!!!scatter)
    __scatterload_rt2_thumb_only             0x60002409   Thumb Code     0  __scatter.o(!!!scatter)
    __scatterload_null                       0x60002417   Thumb Code     0  __scatter.o(!!!scatter)
    __scatterload_copy                       0x6000243d   Thumb Code    26  __scatter_copy.o(!!handler_copy)
    __scatterload_zeroinit                   0x60002459   Thumb Code    28  __scatter_zi.o(!!handler_zi)
    __rt_lib_init                            0x60002475   Thumb Code     0  libinit.o(.ARM.Collect$$libinit$$00000000)
    __rt_lib_init_fp_1                       0x60002477   Thumb Code     0  libinit2.o(.ARM.Collect$$libinit$$00000001)
    __rt_lib_init_heap_1                     0x6000247b   Thumb Code     0  libinit2.o(.ARM.Collect$$libinit$$0000000A)
    __rt_lib_init_lc_common                  0x6000247b   Thumb Code     0  libinit2.o(.ARM.Collect$$libinit$$0000000F)
    __rt_lib_init_preinit_1                  0x6000247b   Thumb Code     0  libinit2.o(.ARM.Collect$$libinit$$00000004)
    __rt_lib_init_rand_1                     0x6000247b   Thumb Code     0  libinit2.o(.ARM.Collect$$libinit$$0000000E)
    __rt_lib_init_user_alloc_1               0x6000247b   Thumb Code     0  libinit2.o(.ARM.Collect$$libinit$$0000000C)
    __rt_lib_init_lc_collate_1               0x60002481   Thumb Code     0  libinit2.o(.ARM.Collect$$libinit$$00000011)
    __rt_lib_init_lc_ctype_2                 0x60002481   Thumb Code     0  libinit2.o(.ARM.Collect$$libinit$$00000012)
    __rt_lib_init_atexit_1                   0x6000248d   Thumb Code     0  libinit2.o(.ARM.Collect$$libinit$$0000001B)
    __rt_lib_init_clock_1                    0x6000248d   Thumb Code     0  libinit2.o(.ARM.Collect$$libinit$$00000020)
    __rt_lib_init_fp_trap_1                  0x6000248d   Thumb Code     0  libinit2.o(.ARM.Collect$$libinit$$0000001F)
    __rt_lib_init_lc_ctype_1                 0x6000248d   Thumb Code     0  libinit2.o(.ARM.Collect$$libinit$$00000013)
    __rt_lib_init_lc_monetary_1              0x6000248d   Thumb Code     0  libinit2.o(.ARM.Collect$$libinit$$00000015)
    __rt_lib_init_lc_numeric_1               0x6000248d   Thumb Code     0  libinit2.o(.ARM.Collect$$libinit$$00000017)
    __rt_lib_init_lc_time_1                  0x6000248d   Thumb Code     0  libinit2.o(.ARM.Collect$$libinit$$00000019)
    __rt_lib_init_signal_1                   0x6000248d   Thumb Code     0  libinit2.o(.ARM.Collect$$libinit$$0000001D)
    __rt_lib_init_alloca_1                   0x60002491   Thumb Code     0  libinit2.o(.ARM.Collect$$libinit$$0000002E)
    __rt_lib_init_argv_1                     0x60002491   Thumb Code     0  libinit2.o(.ARM.Collect$$libinit$$0000002C)
    __rt_lib_init_cpp_1                      0x60002491   Thumb Code     0  libinit2.o(.ARM.Collect$$libinit$$00000032)
    __rt_lib_init_exceptions_1               0x60002491   Thumb Code     0  libinit2.o(.ARM.Collect$$libinit$$00000030)
    __rt_lib_init_getenv_1                   0x60002491   Thumb Code     0  libinit2.o(.ARM.Collect$$libinit$$00000023)
    __rt_lib_init_return                     0x60002491   Thumb Code     0  libinit2.o(.ARM.Collect$$libinit$$00000033)
    __rt_lib_init_stdio_1                    0x60002491   Thumb Code     0  libinit2.o(.ARM.Collect$$libinit$$00000025)
    __rt_lib_shutdown                        0x60002493   Thumb Code     0  libshutdown.o(.ARM.Collect$$libshutdown$$00000000)
    __rt_lib_shutdown_cpp_1                  0x60002495   Thumb Code     0  libshutdown2.o(.ARM.Collect$$libshutdown$$00000002)
    __rt_lib_shutdown_fp_trap_1              0x60002495   Thumb Code     0  libshutdown2.o(.ARM.Collect$$libshutdown$$00000007)
    __rt_lib_shutdown_heap_1                 0x60002495   Thumb Code     0  libshutdown2.o(.ARM.Collect$$libshutdown$$0000000F)
    __rt_lib_shutdown_return                 0x60002495   Thumb Code     0  libshutdown2.o(.ARM.Collect$$libshutdown$$00000010)
    __rt_lib_shutdown_signal_1               0x60002495   Thumb Code     0  libshutdown2.o(.ARM.Collect$$libshutdown$$0000000A)
    __rt_lib_shutdown_stdio_1                0x60002495   Thumb Code     0  libshutdown2.o(.ARM.Collect$$libshutdown$$00000004)
    __rt_lib_shutdown_user_alloc_1           0x60002495   Thumb Code     0  libshutdown2.o(.ARM.Collect$$libshutdown$$0000000C)
    __rt_entry                               0x60002497   Thumb Code     0  __rtentry.o(.ARM.Collect$$rtentry$$00000000)
    __rt_entry_presh_1                       0x60002497   Thumb Code     0  __rtentry2.o(.ARM.Collect$$rtentry$$00000002)
    __rt_entry_sh                            0x60002497   Thumb Code     0  __rtentry7.o(.ARM.Collect$$rtentry$$00000007)
    __rt_entry_li                            0x6000249b   Thumb Code     0  __rtentry2.o(.ARM.Collect$$rtentry$$0000000A)
    __rt_entry_postsh_1                      0x6000249b   Thumb Code     0  __rtentry2.o(.ARM.Collect$$rtentry$$00000009)
    __rt_entry_main                          0x6000249f   Thumb Code     0  __rtentry2.o(.ARM.Collect$$rtentry$$0000000D)
    __rt_entry_postli_1                      0x6000249f   Thumb Code     0  __rtentry2.o(.ARM.Collect$$rtentry$$0000000C)
    __rt_exit                                0x600024ad   Thumb Code     0  rtexit.o(.ARM.Collect$$rtexit$$00000000)
    __rt_exit_ls                             0x600024af   Thumb Code     0  rtexit2.o(.ARM.Collect$$rtexit$$00000003)
    __rt_exit_prels_1                        0x600024af   Thumb Code     0  rtexit2.o(.ARM.Collect$$rtexit$$00000002)
    __rt_exit_exit                           0x600024b3   Thumb Code     0  rtexit2.o(.ARM.Collect$$rtexit$$00000004)
    SVC_Handler                              0x600024b9   Thumb Code    28  port.o(.emb_text)
    __asm___6_port_c_39a90d8d__prvStartFirstTask 0x600024d9   Thumb Code    28  port.o(.emb_text)
    __asm___6_port_c_39a90d8d__prvEnableVFP  0x600024f9   Thumb Code    16  port.o(.emb_text)
    PendSV_Handler                           0x6000250d   Thumb Code    88  port.o(.emb_text)
    vPortGetIPSR                             0x60002569   Thumb Code     6  port.o(.emb_text)
    Reset_Handler                            0x60002571   Thumb Code    24  startup_mimxrt1052.o(.text)
    NMI_Handler                              0x60002589   Thumb Code     2  startup_mimxrt1052.o(.text)
    HardFault_Handler                        0x6000258b   Thumb Code     2  startup_mimxrt1052.o(.text)
    MemManage_Handler                        0x6000258d   Thumb Code     2  startup_mimxrt1052.o(.text)
    BusFault_Handler                         0x6000258f   Thumb Code     2  startup_mimxrt1052.o(.text)
    UsageFault_Handler                       0x60002591   Thumb Code     2  startup_mimxrt1052.o(.text)
    DebugMon_Handler                         0x60002595   Thumb Code     2  startup_mimxrt1052.o(.text)
    DMA0_DMA16_IRQHandler                    0x6000259b   Thumb Code     4  startup_mimxrt1052.o(.text)
    DMA1_DMA17_IRQHandler                    0x6000259f   Thumb Code     4  startup_mimxrt1052.o(.text)
    DMA2_DMA18_IRQHandler                    0x600025a3   Thumb Code     4  startup_mimxrt1052.o(.text)
    DMA3_DMA19_IRQHandler                    0x600025a7   Thumb Code     4  startup_mimxrt1052.o(.text)
    DMA4_DMA20_IRQHandler                    0x600025ab   Thumb Code     4  startup_mimxrt1052.o(.text)
    DMA5_DMA21_IRQHandler                    0x600025af   Thumb Code     4  startup_mimxrt1052.o(.text)
    DMA6_DMA22_IRQHandler                    0x600025b3   Thumb Code     4  startup_mimxrt1052.o(.text)
    DMA7_DMA23_IRQHandler                    0x600025b7   Thumb Code     4  startup_mimxrt1052.o(.text)
    DMA8_DMA24_IRQHandler                    0x600025bb   Thumb Code     4  startup_mimxrt1052.o(.text)
    DMA9_DMA25_IRQHandler                    0x600025bf   Thumb Code     4  startup_mimxrt1052.o(.text)
    DMA10_DMA26_IRQHandler                   0x600025c3   Thumb Code     4  startup_mimxrt1052.o(.text)
    DMA11_DMA27_IRQHandler                   0x600025c7   Thumb Code     4  startup_mimxrt1052.o(.text)
    DMA12_DMA28_IRQHandler                   0x600025cb   Thumb Code     4  startup_mimxrt1052.o(.text)
    DMA13_DMA29_IRQHandler                   0x600025cf   Thumb Code     4  startup_mimxrt1052.o(.text)
    DMA14_DMA30_IRQHandler                   0x600025d3   Thumb Code     4  startup_mimxrt1052.o(.text)
    DMA15_DMA31_IRQHandler                   0x600025d7   Thumb Code     4  startup_mimxrt1052.o(.text)
    DMA_ERROR_IRQHandler                     0x600025db   Thumb Code     4  startup_mimxrt1052.o(.text)
    LPUART1_IRQHandler                       0x600025df   Thumb Code     4  startup_mimxrt1052.o(.text)
    LPUART2_IRQHandler                       0x600025e3   Thumb Code     4  startup_mimxrt1052.o(.text)
    LPUART3_IRQHandler                       0x600025e7   Thumb Code     4  startup_mimxrt1052.o(.text)
    LPUART4_IRQHandler                       0x600025eb   Thumb Code     4  startup_mimxrt1052.o(.text)
    LPUART5_IRQHandler                       0x600025ef   Thumb Code     4  startup_mimxrt1052.o(.text)
    LPUART6_IRQHandler                       0x600025f3   Thumb Code     4  startup_mimxrt1052.o(.text)
    LPUART7_IRQHandler                       0x600025f7   Thumb Code     4  startup_mimxrt1052.o(.text)
    LPUART8_IRQHandler                       0x600025fb   Thumb Code     4  startup_mimxrt1052.o(.text)
    LPI2C1_IRQHandler                        0x600025ff   Thumb Code     4  startup_mimxrt1052.o(.text)
    LPI2C2_IRQHandler                        0x60002603   Thumb Code     4  startup_mimxrt1052.o(.text)
    LPI2C3_IRQHandler                        0x60002607   Thumb Code     4  startup_mimxrt1052.o(.text)
    LPI2C4_IRQHandler                        0x6000260b   Thumb Code     4  startup_mimxrt1052.o(.text)
    LPSPI1_IRQHandler                        0x6000260f   Thumb Code     4  startup_mimxrt1052.o(.text)
    LPSPI2_IRQHandler                        0x60002613   Thumb Code     4  startup_mimxrt1052.o(.text)
    LPSPI3_IRQHandler                        0x60002617   Thumb Code     4  startup_mimxrt1052.o(.text)
    LPSPI4_IRQHandler                        0x6000261b   Thumb Code     4  startup_mimxrt1052.o(.text)
    CAN1_IRQHandler                          0x6000261f   Thumb Code     4  startup_mimxrt1052.o(.text)
    CAN2_IRQHandler                          0x60002623   Thumb Code     4  startup_mimxrt1052.o(.text)
    SAI1_IRQHandler                          0x60002627   Thumb Code     4  startup_mimxrt1052.o(.text)
    SAI2_IRQHandler                          0x6000262b   Thumb Code     4  startup_mimxrt1052.o(.text)
    SAI3_RX_IRQHandler                       0x6000262f   Thumb Code     4  startup_mimxrt1052.o(.text)
    SAI3_TX_IRQHandler                       0x60002633   Thumb Code     4  startup_mimxrt1052.o(.text)
    SPDIF_IRQHandler                         0x60002637   Thumb Code     4  startup_mimxrt1052.o(.text)
    FLEXIO1_IRQHandler                       0x6000263b   Thumb Code     4  startup_mimxrt1052.o(.text)
    FLEXIO2_IRQHandler                       0x6000263f   Thumb Code     4  startup_mimxrt1052.o(.text)
    FLEXSPI_IRQHandler                       0x60002643   Thumb Code     4  startup_mimxrt1052.o(.text)
    USDHC1_IRQHandler                        0x60002647   Thumb Code     4  startup_mimxrt1052.o(.text)
    USDHC2_IRQHandler                        0x6000264b   Thumb Code     4  startup_mimxrt1052.o(.text)
    ENET_IRQHandler                          0x6000264f   Thumb Code     4  startup_mimxrt1052.o(.text)
    ENET_1588_Timer_IRQHandler               0x60002653   Thumb Code     4  startup_mimxrt1052.o(.text)
    ACMP1_IRQHandler                         0x60002657   Thumb Code     0  startup_mimxrt1052.o(.text)
    ACMP2_IRQHandler                         0x60002657   Thumb Code     0  startup_mimxrt1052.o(.text)
    ACMP3_IRQHandler                         0x60002657   Thumb Code     0  startup_mimxrt1052.o(.text)
    ACMP4_IRQHandler                         0x60002657   Thumb Code     0  startup_mimxrt1052.o(.text)
    ADC1_IRQHandler                          0x60002657   Thumb Code     0  startup_mimxrt1052.o(.text)
    ADC2_IRQHandler                          0x60002657   Thumb Code     0  startup_mimxrt1052.o(.text)
    ADC_ETC_ERROR_IRQ_IRQHandler             0x60002657   Thumb Code     0  startup_mimxrt1052.o(.text)
    ADC_ETC_IRQ0_IRQHandler                  0x60002657   Thumb Code     0  startup_mimxrt1052.o(.text)
    ADC_ETC_IRQ1_IRQHandler                  0x60002657   Thumb Code     0  startup_mimxrt1052.o(.text)
    ADC_ETC_IRQ2_IRQHandler                  0x60002657   Thumb Code     0  startup_mimxrt1052.o(.text)
    ANATOP_EVENT0_IRQHandler                 0x60002657   Thumb Code     0  startup_mimxrt1052.o(.text)
    ANATOP_EVENT1_IRQHandler                 0x60002657   Thumb Code     0  startup_mimxrt1052.o(.text)
    ANATOP_TAMP_LOW_HIGH_IRQHandler          0x60002657   Thumb Code     0  startup_mimxrt1052.o(.text)
    ANATOP_TEMP_PANIC_IRQHandler             0x60002657   Thumb Code     0  startup_mimxrt1052.o(.text)
    BEE_IRQHandler                           0x60002657   Thumb Code     0  startup_mimxrt1052.o(.text)
    CAN1_DriverIRQHandler                    0x60002657   Thumb Code     0  startup_mimxrt1052.o(.text)
    CAN2_DriverIRQHandler                    0x60002657   Thumb Code     0  startup_mimxrt1052.o(.text)
    CCM_1_IRQHandler                         0x60002657   Thumb Code     0  startup_mimxrt1052.o(.text)
    CCM_2_IRQHandler                         0x60002657   Thumb Code     0  startup_mimxrt1052.o(.text)
    CORE_IRQHandler                          0x60002657   Thumb Code     0  startup_mimxrt1052.o(.text)
    CSI_IRQHandler                           0x60002657   Thumb Code     0  startup_mimxrt1052.o(.text)
    CSU_IRQHandler                           0x60002657   Thumb Code     0  startup_mimxrt1052.o(.text)
    CTI0_ERROR_IRQHandler                    0x60002657   Thumb Code     0  startup_mimxrt1052.o(.text)
    CTI1_ERROR_IRQHandler                    0x60002657   Thumb Code     0  startup_mimxrt1052.o(.text)
    DCDC_IRQHandler                          0x60002657   Thumb Code     0  startup_mimxrt1052.o(.text)
    DCP_IRQHandler                           0x60002657   Thumb Code     0  startup_mimxrt1052.o(.text)
    DCP_VMI_IRQHandler                       0x60002657   Thumb Code     0  startup_mimxrt1052.o(.text)
    DMA0_DMA16_DriverIRQHandler              0x60002657   Thumb Code     0  startup_mimxrt1052.o(.text)
    DMA10_DMA26_DriverIRQHandler             0x60002657   Thumb Code     0  startup_mimxrt1052.o(.text)
    DMA11_DMA27_DriverIRQHandler             0x60002657   Thumb Code     0  startup_mimxrt1052.o(.text)
    DMA12_DMA28_DriverIRQHandler             0x60002657   Thumb Code     0  startup_mimxrt1052.o(.text)
    DMA13_DMA29_DriverIRQHandler             0x60002657   Thumb Code     0  startup_mimxrt1052.o(.text)
    DMA14_DMA30_DriverIRQHandler             0x60002657   Thumb Code     0  startup_mimxrt1052.o(.text)
    DMA15_DMA31_DriverIRQHandler             0x60002657   Thumb Code     0  startup_mimxrt1052.o(.text)
    DMA1_DMA17_DriverIRQHandler              0x60002657   Thumb Code     0  startup_mimxrt1052.o(.text)
    DMA2_DMA18_DriverIRQHandler              0x60002657   Thumb Code     0  startup_mimxrt1052.o(.text)
    DMA3_DMA19_DriverIRQHandler              0x60002657   Thumb Code     0  startup_mimxrt1052.o(.text)
    DMA4_DMA20_DriverIRQHandler              0x60002657   Thumb Code     0  startup_mimxrt1052.o(.text)
    DMA5_DMA21_DriverIRQHandler              0x60002657   Thumb Code     0  startup_mimxrt1052.o(.text)
    DMA6_DMA22_DriverIRQHandler              0x60002657   Thumb Code     0  startup_mimxrt1052.o(.text)
    DMA7_DMA23_DriverIRQHandler              0x60002657   Thumb Code     0  startup_mimxrt1052.o(.text)
    DMA8_DMA24_DriverIRQHandler              0x60002657   Thumb Code     0  startup_mimxrt1052.o(.text)
    DMA9_DMA25_DriverIRQHandler              0x60002657   Thumb Code     0  startup_mimxrt1052.o(.text)
    DMA_ERROR_DriverIRQHandler               0x60002657   Thumb Code     0  startup_mimxrt1052.o(.text)
    DefaultISR                               0x60002657   Thumb Code     0  startup_mimxrt1052.o(.text)
    ENC1_IRQHandler                          0x60002657   Thumb Code     0  startup_mimxrt1052.o(.text)
    ENC2_IRQHandler                          0x60002657   Thumb Code     0  startup_mimxrt1052.o(.text)
    ENC3_IRQHandler                          0x60002657   Thumb Code     0  startup_mimxrt1052.o(.text)
    ENC4_IRQHandler                          0x60002657   Thumb Code     0  startup_mimxrt1052.o(.text)
    ENET_1588_Timer_DriverIRQHandler         0x60002657   Thumb Code     0  startup_mimxrt1052.o(.text)
    ENET_DriverIRQHandler                    0x60002657   Thumb Code     0  startup_mimxrt1052.o(.text)
    EWM_IRQHandler                           0x60002657   Thumb Code     0  startup_mimxrt1052.o(.text)
    FLEXRAM_IRQHandler                       0x60002657   Thumb Code     0  startup_mimxrt1052.o(.text)
    FLEXSPI_DriverIRQHandler                 0x60002657   Thumb Code     0  startup_mimxrt1052.o(.text)
    GPC_IRQHandler                           0x60002657   Thumb Code     0  startup_mimxrt1052.o(.text)
    GPIO1_Combined_0_15_IRQHandler           0x60002657   Thumb Code     0  startup_mimxrt1052.o(.text)
    GPIO1_Combined_16_31_IRQHandler          0x60002657   Thumb Code     0  startup_mimxrt1052.o(.text)
    GPIO1_INT0_IRQHandler                    0x60002657   Thumb Code     0  startup_mimxrt1052.o(.text)
    GPIO1_INT1_IRQHandler                    0x60002657   Thumb Code     0  startup_mimxrt1052.o(.text)
    GPIO1_INT2_IRQHandler                    0x60002657   Thumb Code     0  startup_mimxrt1052.o(.text)
    GPIO1_INT3_IRQHandler                    0x60002657   Thumb Code     0  startup_mimxrt1052.o(.text)
    GPIO1_INT4_IRQHandler                    0x60002657   Thumb Code     0  startup_mimxrt1052.o(.text)
    GPIO1_INT5_IRQHandler                    0x60002657   Thumb Code     0  startup_mimxrt1052.o(.text)
    GPIO1_INT6_IRQHandler                    0x60002657   Thumb Code     0  startup_mimxrt1052.o(.text)
    GPIO1_INT7_IRQHandler                    0x60002657   Thumb Code     0  startup_mimxrt1052.o(.text)
    GPIO2_Combined_0_15_IRQHandler           0x60002657   Thumb Code     0  startup_mimxrt1052.o(.text)
    GPIO2_Combined_16_31_IRQHandler          0x60002657   Thumb Code     0  startup_mimxrt1052.o(.text)
    GPIO3_Combined_0_15_IRQHandler           0x60002657   Thumb Code     0  startup_mimxrt1052.o(.text)
    GPIO3_Combined_16_31_IRQHandler          0x60002657   Thumb Code     0  startup_mimxrt1052.o(.text)
    GPIO4_Combined_16_31_IRQHandler          0x60002657   Thumb Code     0  startup_mimxrt1052.o(.text)
    GPIO5_Combined_0_15_IRQHandler           0x60002657   Thumb Code     0  startup_mimxrt1052.o(.text)
    GPIO5_Combined_16_31_IRQHandler          0x60002657   Thumb Code     0  startup_mimxrt1052.o(.text)
    GPR_IRQ_IRQHandler                       0x60002657   Thumb Code     0  startup_mimxrt1052.o(.text)
    GPT1_IRQHandler                          0x60002657   Thumb Code     0  startup_mimxrt1052.o(.text)
    GPT2_IRQHandler                          0x60002657   Thumb Code     0  startup_mimxrt1052.o(.text)
    KPP_IRQHandler                           0x60002657   Thumb Code     0  startup_mimxrt1052.o(.text)
    LCDIF_IRQHandler                         0x60002657   Thumb Code     0  startup_mimxrt1052.o(.text)
    LPI2C4_DriverIRQHandler                  0x60002657   Thumb Code     0  startup_mimxrt1052.o(.text)
    LPSPI1_DriverIRQHandler                  0x60002657   Thumb Code     0  startup_mimxrt1052.o(.text)
    LPSPI2_DriverIRQHandler                  0x60002657   Thumb Code     0  startup_mimxrt1052.o(.text)
    LPSPI3_DriverIRQHandler                  0x60002657   Thumb Code     0  startup_mimxrt1052.o(.text)
    LPSPI4_DriverIRQHandler                  0x60002657   Thumb Code     0  startup_mimxrt1052.o(.text)
    NMI_WAKEUP_IRQHandler                    0x60002657   Thumb Code     0  startup_mimxrt1052.o(.text)
    PIT_IRQHandler                           0x60002657   Thumb Code     0  startup_mimxrt1052.o(.text)
    PWM1_0_IRQHandler                        0x60002657   Thumb Code     0  startup_mimxrt1052.o(.text)
    PWM1_1_IRQHandler                        0x60002657   Thumb Code     0  startup_mimxrt1052.o(.text)
    PWM1_2_IRQHandler                        0x60002657   Thumb Code     0  startup_mimxrt1052.o(.text)
    PWM1_3_IRQHandler                        0x60002657   Thumb Code     0  startup_mimxrt1052.o(.text)
    PWM1_FAULT_IRQHandler                    0x60002657   Thumb Code     0  startup_mimxrt1052.o(.text)
    PWM2_0_IRQHandler                        0x60002657   Thumb Code     0  startup_mimxrt1052.o(.text)
    PWM2_1_IRQHandler                        0x60002657   Thumb Code     0  startup_mimxrt1052.o(.text)
    PWM2_2_IRQHandler                        0x60002657   Thumb Code     0  startup_mimxrt1052.o(.text)
    PWM2_3_IRQHandler                        0x60002657   Thumb Code     0  startup_mimxrt1052.o(.text)
    PWM2_FAULT_IRQHandler                    0x60002657   Thumb Code     0  startup_mimxrt1052.o(.text)
    PWM3_0_IRQHandler                        0x60002657   Thumb Code     0  startup_mimxrt1052.o(.text)
    PWM3_1_IRQHandler                        0x60002657   Thumb Code     0  startup_mimxrt1052.o(.text)
    PWM3_2_IRQHandler                        0x60002657   Thumb Code     0  startup_mimxrt1052.o(.text)
    PWM3_3_IRQHandler                        0x60002657   Thumb Code     0  startup_mimxrt1052.o(.text)
    PWM3_FAULT_IRQHandler                    0x60002657   Thumb Code     0  startup_mimxrt1052.o(.text)
    PWM4_0_IRQHandler                        0x60002657   Thumb Code     0  startup_mimxrt1052.o(.text)
    PWM4_1_IRQHandler                        0x60002657   Thumb Code     0  startup_mimxrt1052.o(.text)
    PWM4_2_IRQHandler                        0x60002657   Thumb Code     0  startup_mimxrt1052.o(.text)
    PWM4_3_IRQHandler                        0x60002657   Thumb Code     0  startup_mimxrt1052.o(.text)
    PWM4_FAULT_IRQHandler                    0x60002657   Thumb Code     0  startup_mimxrt1052.o(.text)
    PXP_IRQHandler                           0x60002657   Thumb Code     0  startup_mimxrt1052.o(.text)
    RTWDOG_IRQHandler                        0x60002657   Thumb Code     0  startup_mimxrt1052.o(.text)
    Reserved115_IRQHandler                   0x60002657   Thumb Code     0  startup_mimxrt1052.o(.text)
    Reserved123_IRQHandler                   0x60002657   Thumb Code     0  startup_mimxrt1052.o(.text)
    Reserved143_IRQHandler                   0x60002657   Thumb Code     0  startup_mimxrt1052.o(.text)
    Reserved144_IRQHandler                   0x60002657   Thumb Code     0  startup_mimxrt1052.o(.text)
    Reserved168_IRQHandler                   0x60002657   Thumb Code     0  startup_mimxrt1052.o(.text)
    Reserved169_IRQHandler                   0x60002657   Thumb Code     0  startup_mimxrt1052.o(.text)
    Reserved170_IRQHandler                   0x60002657   Thumb Code     0  startup_mimxrt1052.o(.text)
    Reserved171_IRQHandler                   0x60002657   Thumb Code     0  startup_mimxrt1052.o(.text)
    Reserved172_IRQHandler                   0x60002657   Thumb Code     0  startup_mimxrt1052.o(.text)
    Reserved173_IRQHandler                   0x60002657   Thumb Code     0  startup_mimxrt1052.o(.text)
    Reserved68_IRQHandler                    0x60002657   Thumb Code     0  startup_mimxrt1052.o(.text)
    Reserved86_IRQHandler                    0x60002657   Thumb Code     0  startup_mimxrt1052.o(.text)
    Reserved87_IRQHandler                    0x60002657   Thumb Code     0  startup_mimxrt1052.o(.text)
    SAI1_DriverIRQHandler                    0x60002657   Thumb Code     0  startup_mimxrt1052.o(.text)
    SAI2_DriverIRQHandler                    0x60002657   Thumb Code     0  startup_mimxrt1052.o(.text)
    SAI3_RX_DriverIRQHandler                 0x60002657   Thumb Code     0  startup_mimxrt1052.o(.text)
    SAI3_TX_DriverIRQHandler                 0x60002657   Thumb Code     0  startup_mimxrt1052.o(.text)
    SEMC_IRQHandler                          0x60002657   Thumb Code     0  startup_mimxrt1052.o(.text)
    SJC_ARM_DEBUG_IRQHandler                 0x60002657   Thumb Code     0  startup_mimxrt1052.o(.text)
    SJC_IRQHandler                           0x60002657   Thumb Code     0  startup_mimxrt1052.o(.text)
    SNVS_HP_WRAPPER_IRQHandler               0x60002657   Thumb Code     0  startup_mimxrt1052.o(.text)
    SNVS_HP_WRAPPER_TZ_IRQHandler            0x60002657   Thumb Code     0  startup_mimxrt1052.o(.text)
    SNVS_LP_WRAPPER_IRQHandler               0x60002657   Thumb Code     0  startup_mimxrt1052.o(.text)
    SPDIF_DriverIRQHandler                   0x60002657   Thumb Code     0  startup_mimxrt1052.o(.text)
    SRC_IRQHandler                           0x60002657   Thumb Code     0  startup_mimxrt1052.o(.text)
    TMR1_IRQHandler                          0x60002657   Thumb Code     0  startup_mimxrt1052.o(.text)
    TMR2_IRQHandler                          0x60002657   Thumb Code     0  startup_mimxrt1052.o(.text)
    TMR3_IRQHandler                          0x60002657   Thumb Code     0  startup_mimxrt1052.o(.text)
    TMR4_IRQHandler                          0x60002657   Thumb Code     0  startup_mimxrt1052.o(.text)
    TRNG_IRQHandler                          0x60002657   Thumb Code     0  startup_mimxrt1052.o(.text)
    TSC_DIG_IRQHandler                       0x60002657   Thumb Code     0  startup_mimxrt1052.o(.text)
    USB_OTG1_IRQHandler                      0x60002657   Thumb Code     0  startup_mimxrt1052.o(.text)
    USB_OTG2_IRQHandler                      0x60002657   Thumb Code     0  startup_mimxrt1052.o(.text)
    USB_PHY1_IRQHandler                      0x60002657   Thumb Code     0  startup_mimxrt1052.o(.text)
    USB_PHY2_IRQHandler                      0x60002657   Thumb Code     0  startup_mimxrt1052.o(.text)
    USDHC1_DriverIRQHandler                  0x60002657   Thumb Code     0  startup_mimxrt1052.o(.text)
    USDHC2_DriverIRQHandler                  0x60002657   Thumb Code     0  startup_mimxrt1052.o(.text)
    WDOG1_IRQHandler                         0x60002657   Thumb Code     0  startup_mimxrt1052.o(.text)
    WDOG2_IRQHandler                         0x60002657   Thumb Code     0  startup_mimxrt1052.o(.text)
    XBAR1_IRQ_0_1_IRQHandler                 0x60002657   Thumb Code     0  startup_mimxrt1052.o(.text)
    XBAR1_IRQ_2_3_IRQHandler                 0x60002657   Thumb Code     0  startup_mimxrt1052.o(.text)
    __aeabi_uldivmod                         0x6000272d   Thumb Code     0  lludivv7m.o(.text)
    _ll_udiv                                 0x6000272d   Thumb Code   238  lludivv7m.o(.text)
    atoi                                     0x6000281b   Thumb Code    26  atoi.o(.text)
    strlen                                   0x60002835   Thumb Code    62  strlen.o(.text)
    __aeabi_memcpy                           0x60002873   Thumb Code     0  rt_memcpy_v6.o(.text)
    __rt_memcpy                              0x60002873   Thumb Code   138  rt_memcpy_v6.o(.text)
    _memcpy_lastbytes                        0x600028d9   Thumb Code     0  rt_memcpy_v6.o(.text)
    __aeabi_memmove                          0x600028fd   Thumb Code     0  rt_memmove_v6.o(.text)
    __rt_memmove                             0x600028fd   Thumb Code   132  rt_memmove_v6.o(.text)
    __memmove_lastfew                        0x6000295d   Thumb Code     0  rt_memmove_v6.o(.text)
    __aeabi_memcpy4                          0x60002981   Thumb Code     0  rt_memcpy_w.o(.text)
    __aeabi_memcpy8                          0x60002981   Thumb Code     0  rt_memcpy_w.o(.text)
    __rt_memcpy_w                            0x60002981   Thumb Code   100  rt_memcpy_w.o(.text)
    _memcpy_lastbytes_aligned                0x600029c9   Thumb Code     0  rt_memcpy_w.o(.text)
    __aeabi_memset                           0x600029e5   Thumb Code    16  aeabi_memset.o(.text)
    __aeabi_memclr                           0x600029f5   Thumb Code     0  rt_memclr.o(.text)
    __rt_memclr                              0x600029f5   Thumb Code    68  rt_memclr.o(.text)
    _memset                                  0x600029f9   Thumb Code     0  rt_memclr.o(.text)
    __aeabi_memclr4                          0x60002a39   Thumb Code     0  rt_memclr_w.o(.text)
    __aeabi_memclr8                          0x60002a39   Thumb Code     0  rt_memclr_w.o(.text)
    __rt_memclr_w                            0x60002a39   Thumb Code    78  rt_memclr_w.o(.text)
    _memset_w                                0x60002a3d   Thumb Code     0  rt_memclr_w.o(.text)
    __aeabi_errno_addr                       0x60002a89   Thumb Code     8  rt_errno_addr_intlibspace.o(.text)
    __errno$intlibspace                      0x60002a89   Thumb Code     0  rt_errno_addr_intlibspace.o(.text)
    __rt_errno_addr$intlibspace              0x60002a89   Thumb Code     0  rt_errno_addr_intlibspace.o(.text)
    strtol                                   0x60002a91   Thumb Code   112  strtol.o(.text)
    __aeabi_memmove4                         0x60002b01   Thumb Code     0  rt_memmove_w.o(.text)
    __aeabi_memmove8                         0x60002b01   Thumb Code     0  rt_memmove_w.o(.text)
    __rt_memmove_w                           0x60002b01   Thumb Code   122  rt_memmove_w.o(.text)
    __memmove_aligned                        0x60002b27   Thumb Code     0  rt_memmove_w.o(.text)
    __memmove_lastfew_aligned                0x60002b5f   Thumb Code     0  rt_memmove_w.o(.text)
    __rt_ctype_table                         0x60002b7d   Thumb Code    16  rt_ctype_table.o(.text)
    _strtoul                                 0x60002b8d   Thumb Code   158  _strtoul.o(.text)
    __I$use$semihosting                      0x60002c2b   Thumb Code     0  use_no_semi.o(.text)
    __use_no_semihosting_swi                 0x60002c2b   Thumb Code     2  use_no_semi.o(.text)
    __rt_locale                              0x60002c2d   Thumb Code     8  rt_locale_intlibspace.o(.text)
    __semihosting_library_function           0x60002c2d   Thumb Code     0  indicate_semi.o(.text)
    _chval                                   0x60002c35   Thumb Code    28  _chval.o(.text)
    exit                                     0x60002c51   Thumb Code    18  exit.o(.text)
    _sys_exit                                0x60002c65   Thumb Code     8  sys_exit.o(.text)
    strcmp                                   0x60002c71   Thumb Code   104  strcmpv7m_pel.o(.text)
    BOARD_BootClockRUN                       0x60002de9   Thumb Code   146  clock_config.o(i.BOARD_BootClockRUN)
    BOARD_ConfigMPU                          0x60002eb5   Thumb Code   358  board.o(i.BOARD_ConfigMPU)
    BOARD_DebugConsoleSrcFreq                0x60003049   Thumb Code    92  board.o(i.BOARD_DebugConsoleSrcFreq)
    BOARD_InitDebugConsole                   0x600030bd   Thumb Code    24  board.o(i.BOARD_InitDebugConsole)
    BOARD_InitPins                           0x600030d9   Thumb Code   806  pin_mux.o(i.BOARD_InitPins)
    CLOCK_DeinitAudioPll                     0x600035bd   Thumb Code    10  fsl_clock.o(i.CLOCK_DeinitAudioPll)
    CLOCK_DeinitEnetPll                      0x600035cd   Thumb Code    10  fsl_clock.o(i.CLOCK_DeinitEnetPll)
    CLOCK_DeinitUsb2Pll                      0x600035dd   Thumb Code     8  fsl_clock.o(i.CLOCK_DeinitUsb2Pll)
    CLOCK_DeinitVideoPll                     0x600035e9   Thumb Code    10  fsl_clock.o(i.CLOCK_DeinitVideoPll)
    CLOCK_GetFreq                            0x60003789   Thumb Code   354  fsl_clock.o(i.CLOCK_GetFreq)
    CLOCK_GetPllFreq                         0x600039c9   Thumb Code   454  fsl_clock.o(i.CLOCK_GetPllFreq)
    CLOCK_GetSysPfdFreq                      0x60003ba5   Thumb Code   100  fsl_clock.o(i.CLOCK_GetSysPfdFreq)
    CLOCK_GetUsb1PfdFreq                     0x60003c0d   Thumb Code   100  fsl_clock.o(i.CLOCK_GetUsb1PfdFreq)
    CLOCK_InitArmPll                         0x60003c75   Thumb Code    30  fsl_clock.o(i.CLOCK_InitArmPll)
    CLOCK_InitUsb1Pll                        0x60003c99   Thumb Code    30  fsl_clock.o(i.CLOCK_InitUsb1Pll)
    Collision_Detect_Init                    0x60003fb1   Thumb Code    70  board.o(i.Collision_Detect_Init)
    Collision_Detection_task                 0x60004001   Thumb Code   160  app.o(i.Collision_Detection_task)
    Command_Register                         0x600040b1   Thumb Code    22  shell_command.o(i.Command_Register)
    DbgConsole_Getchar                       0x6000417d   Thumb Code    14  fsl_debug_console.o(i.DbgConsole_Getchar)
    DbgConsole_Init                          0x6000418d   Thumb Code    42  fsl_debug_console.o(i.DbgConsole_Init)
    DbgConsole_Printf                        0x6000420d   Thumb Code    60  fsl_debug_console.o(i.DbgConsole_Printf)
    DbgConsole_Putchar                       0x6000424d   Thumb Code    12  fsl_debug_console.o(i.DbgConsole_Putchar)
    FLEXIO1_DriverIRQHandler                 0x600042f1   Thumb Code     8  fsl_flexio.o(i.FLEXIO1_DriverIRQHandler)
    FLEXIO2_DriverIRQHandler                 0x600042f9   Thumb Code     8  fsl_flexio.o(i.FLEXIO2_DriverIRQHandler)
    FLEXIO_CommonIRQHandler                  0x60004301   Thumb Code    44  fsl_flexio.o(i.FLEXIO_CommonIRQHandler)
    GPIO4_Combined_0_15_IRQHandler           0x60004339   Thumb Code   112  cleanbot_main.o(i.GPIO4_Combined_0_15_IRQHandler)
    GPIO_PinInit                             0x60004461   Thumb Code    96  fsl_gpio.o(i.GPIO_PinInit)
    GPIO_PinSetInterruptConfig               0x60004511   Thumb Code   138  fsl_gpio.o(i.GPIO_PinSetInterruptConfig)
    GPIO_PinWrite                            0x6000459d   Thumb Code    50  fsl_gpio.o(i.GPIO_PinWrite)
    GetChar                                  0x60004629   Thumb Code    18  fsl_shell.o(i.GetChar)
    IO_Init                                  0x60004715   Thumb Code   130  fsl_io.o(i.IO_Init)
    IO_Transfer                              0x600047c9   Thumb Code    64  fsl_io.o(i.IO_Transfer)
    IR_SENSOR_INIT                           0x6000480d   Thumb Code    60  board.o(i.IR_SENSOR_INIT)
    LOG_Init                                 0x60004851   Thumb Code    36  fsl_log.o(i.LOG_Init)
    LOG_Pop                                  0x60004875   Thumb Code    34  fsl_log.o(i.LOG_Pop)
    LOG_Push                                 0x60004899   Thumb Code    32  fsl_log.o(i.LOG_Push)
    LOG_ReadCharacter                        0x600048e9   Thumb Code    42  fsl_log.o(i.LOG_ReadCharacter)
    LPI2C1_DriverIRQHandler                  0x6000495d   Thumb Code    12  fsl_lpi2c.o(i.LPI2C1_DriverIRQHandler)
    LPI2C2_DriverIRQHandler                  0x6000496d   Thumb Code    12  fsl_lpi2c.o(i.LPI2C2_DriverIRQHandler)
    LPI2C3_DriverIRQHandler                  0x6000497d   Thumb Code    12  fsl_lpi2c.o(i.LPI2C3_DriverIRQHandler)
    LPI2C_CheckForBusyBus                    0x6000498d   Thumb Code    34  fsl_lpi2c.o(i.LPI2C_CheckForBusyBus)
    LPI2C_GetInstance                        0x60004a45   Thumb Code    38  fsl_lpi2c.o(i.LPI2C_GetInstance)
    LPI2C_MasterCheckAndClearError           0x60004b5d   Thumb Code    98  fsl_lpi2c.o(i.LPI2C_MasterCheckAndClearError)
    LPI2C_MasterGetDefaultConfig             0x60004c09   Thumb Code    44  fsl_lpi2c.o(i.LPI2C_MasterGetDefaultConfig)
    LPI2C_MasterInit                         0x60004c55   Thumb Code   302  fsl_lpi2c.o(i.LPI2C_MasterInit)
    LPI2C_MasterReceive                      0x60004d8d   Thumb Code   118  fsl_lpi2c.o(i.LPI2C_MasterReceive)
    LPI2C_MasterSend                         0x60004e39   Thumb Code    70  fsl_lpi2c.o(i.LPI2C_MasterSend)
    LPI2C_MasterSetBaudRate                  0x60004ea9   Thumb Code   286  fsl_lpi2c.o(i.LPI2C_MasterSetBaudRate)
    LPI2C_MasterStart                        0x60004fcd   Thumb Code    72  fsl_lpi2c.o(i.LPI2C_MasterStart)
    LPI2C_MasterStop                         0x60005015   Thumb Code    74  fsl_lpi2c.o(i.LPI2C_MasterStop)
    LPI2C_MasterTransferCreateHandle         0x60005061   Thumb Code    84  fsl_lpi2c.o(i.LPI2C_MasterTransferCreateHandle)
    LPI2C_MasterTransferHandleIRQ            0x600050ed   Thumb Code    70  fsl_lpi2c.o(i.LPI2C_MasterTransferHandleIRQ)
    LPI2C_MasterTransferNonBlocking          0x60005135   Thumb Code   148  fsl_lpi2c.o(i.LPI2C_MasterTransferNonBlocking)
    LPI2C_RTOS_Init                          0x600052a9   Thumb Code   104  fsl_lpi2c_freertos.o(i.LPI2C_RTOS_Init)
    LPI2C_RTOS_Transfer                      0x60005315   Thumb Code    86  fsl_lpi2c_freertos.o(i.LPI2C_RTOS_Transfer)
    LPUART1_DriverIRQHandler                 0x6000550d   Thumb Code    16  fsl_lpuart.o(i.LPUART1_DriverIRQHandler)
    LPUART2_DriverIRQHandler                 0x60005529   Thumb Code    16  fsl_lpuart.o(i.LPUART2_DriverIRQHandler)
    LPUART3_DriverIRQHandler                 0x60005545   Thumb Code    16  fsl_lpuart.o(i.LPUART3_DriverIRQHandler)
    LPUART4_DriverIRQHandler                 0x60005561   Thumb Code    16  fsl_lpuart.o(i.LPUART4_DriverIRQHandler)
    LPUART5_DriverIRQHandler                 0x6000557d   Thumb Code    16  fsl_lpuart.o(i.LPUART5_DriverIRQHandler)
    LPUART6_DriverIRQHandler                 0x60005599   Thumb Code    16  fsl_lpuart.o(i.LPUART6_DriverIRQHandler)
    LPUART7_DriverIRQHandler                 0x600055b5   Thumb Code    16  fsl_lpuart.o(i.LPUART7_DriverIRQHandler)
    LPUART8_DriverIRQHandler                 0x600055d1   Thumb Code    16  fsl_lpuart.o(i.LPUART8_DriverIRQHandler)
    LPUART_ClearStatusFlags                  0x600055ed   Thumb Code    82  fsl_lpuart.o(i.LPUART_ClearStatusFlags)
    LPUART_GetDefaultConfig                  0x60005645   Thumb Code    58  fsl_lpuart.o(i.LPUART_GetDefaultConfig)
    LPUART_GetInstance                       0x600056a9   Thumb Code    48  fsl_lpuart.o(i.LPUART_GetInstance)
    LPUART_GetStatusFlags                    0x60005725   Thumb Code    16  fsl_lpuart.o(i.LPUART_GetStatusFlags)
    LPUART_Init                              0x60005735   Thumb Code   548  fsl_lpuart.o(i.LPUART_Init)
    LPUART_ReadBlocking                      0x60005a21   Thumb Code   210  fsl_lpuart.o(i.LPUART_ReadBlocking)
    LPUART_WriteBlocking                     0x60005b1d   Thumb Code    54  fsl_lpuart.o(i.LPUART_WriteBlocking)
    L_MOTOR_CTRL                             0x60005b7d   Thumb Code    54  motor.o(i.L_MOTOR_CTRL)
    L_MOTOR_task                             0x60005bbd   Thumb Code    12  app.o(i.L_MOTOR_task)
    LedControl                               0x60005bc9   Thumb Code    38  shell_command.o(i.LedControl)
    PWM_Control                              0x60005c09   Thumb Code   182  shell_command.o(i.PWM_Control)
    PWM_DRV_Init                             0x60005cdd   Thumb Code   370  motor.o(i.PWM_DRV_Init)
    PWM_GetDefaultConfig                     0x60005e79   Thumb Code    46  fsl_pwm.o(i.PWM_GetDefaultConfig)
    PWM_Init                                 0x60005f41   Thumb Code   414  fsl_pwm.o(i.PWM_Init)
    PWM_SetupPwm                             0x60006131   Thumb Code   820  fsl_pwm.o(i.PWM_SetupPwm)
    PWM_UpdatePwmDutycycle                   0x600064b1   Thumb Code   512  fsl_pwm.o(i.PWM_UpdatePwmDutycycle)
    R_MOTOR_CTRL                             0x6000693d   Thumb Code    54  motor.o(i.R_MOTOR_CTRL)
    R_MOTOR_task                             0x6000697d   Thumb Code    12  app.o(i.R_MOTOR_task)
    Route_Planning_task                      0x60006989   Thumb Code   302  app.o(i.Route_Planning_task)
    SDRAM_Init                               0x60006dad   Thumb Code    12  system_mimxrt1052.o(i.SDRAM_Init)
    SDRAM_WaitIpCmdDone                      0x60006db9   Thumb Code    22  system_mimxrt1052.o(i.SDRAM_WaitIpCmdDone)
    SHELL_Init                               0x60006dd5   Thumb Code   112  fsl_shell.o(i.SHELL_Init)
    SHELL_Main                               0x60006eb5   Thumb Code   686  fsl_shell.o(i.SHELL_Main)
    SHELL_ReceiveDataCallback                0x600071cd   Thumb Code    26  shell_command.o(i.SHELL_ReceiveDataCallback)
    SHELL_RegisterCommand                    0x600071e9   Thumb Code    48  fsl_shell.o(i.SHELL_RegisterCommand)
    SHELL_SendDataCallback                   0x6000721d   Thumb Code    26  shell_command.o(i.SHELL_SendDataCallback)
    Shell_task                               0x60007239   Thumb Code    38  app.o(i.Shell_task)
    StateLED_task                            0x60007279   Thumb Code    56  app.o(i.StateLED_task)
    StrFormatPrintf                          0x60007325   Thumb Code   558  fsl_str.o(i.StrFormatPrintf)
    SysTick_Handler                          0x60007565   Thumb Code    46  port.o(i.SysTick_Handler)
    SystemCoreClockUpdate                    0x60007599   Thumb Code   282  system_mimxrt1052.o(i.SystemCoreClockUpdate)
    SystemInit                               0x600076c9   Thumb Code   126  system_mimxrt1052.o(i.SystemInit)
    TaskDelay_ms                             0x6000775d   Thumb Code    12  common.o(i.TaskDelay_ms)
    VL53L0X_Control                          0x60007769   Thumb Code    78  shell_command.o(i.VL53L0X_Control)
    VL53L0X_Init                             0x60007825   Thumb Code   164  vl53l0x.o(i.VL53L0X_Init)
    VL53L0X_Read_Buf                         0x600078f1   Thumb Code    76  vl53l0x.o(i.VL53L0X_Read_Buf)
    VL53L0X_Read_Byte                        0x60007949   Thumb Code   112  vl53l0x.o(i.VL53L0X_Read_Byte)
    VL53L0X_Write_Byte                       0x600079c5   Thumb Code    46  vl53l0x.o(i.VL53L0X_Write_Byte)
    VL53L0X_task                             0x60007a05   Thumb Code   348  app.o(i.VL53L0X_task)
    XBARA_Init                               0x60007c79   Thumb Code    28  fsl_xbara.o(i.XBARA_Init)
    XBARA_SetSignalsConnection               0x60007c99   Thumb Code    42  fsl_xbara.o(i.XBARA_SetSignalsConnection)
    __aeabi_assert                           0x60007ccd   Thumb Code    24  fsl_assert.o(i.__aeabi_assert)
    _clock_init                              0x60007d11   Thumb Code   118  system_mimxrt1052.o(i._clock_init)
    _sdr_Init                                0x60007d95   Thumb Code  1260  system_mimxrt1052.o(i._sdr_Init)
    hello_task                               0x6000828d   Thumb Code   344  app.o(i.hello_task)
    main                                     0x600086c5   Thumb Code   344  cleanbot_main.o(i.main)
    makeuint16                               0x60008859   Thumb Code    12  vl53l0x.o(i.makeuint16)
    pvPortMalloc                             0x60009249   Thumb Code   296  heap_4.o(i.pvPortMalloc)
    pvTaskIncrementMutexHeldCount            0x60009385   Thumb Code    26  tasks.o(i.pvTaskIncrementMutexHeldCount)
    pxPortInitialiseStack                    0x600093a5   Thumb Code    38  port.o(i.pxPortInitialiseStack)
    uxListRemove                             0x600093d1   Thumb Code    40  list.o(i.uxListRemove)
    vListInitialise                          0x600093f9   Thumb Code    26  list.o(i.vListInitialise)
    vListInitialiseItem                      0x60009413   Thumb Code     6  list.o(i.vListInitialiseItem)
    vListInsert                              0x60009419   Thumb Code    52  list.o(i.vListInsert)
    vListInsertEnd                           0x6000944d   Thumb Code    24  list.o(i.vListInsertEnd)
    vPortEnterCritical                       0x60009465   Thumb Code    76  port.o(i.vPortEnterCritical)
    vPortExitCritical                        0x600094b9   Thumb Code    56  port.o(i.vPortExitCritical)
    vPortFree                                0x600094f5   Thumb Code   140  heap_4.o(i.vPortFree)
    vPortSetupTimerInterrupt                 0x60009589   Thumb Code    26  fsl_tickless_systick.o(i.vPortSetupTimerInterrupt)
    vPortValidateInterruptPriority           0x600095a9   Thumb Code   106  port.o(i.vPortValidateInterruptPriority)
    vQueueAddToRegistry                      0x60009621   Thumb Code    38  queue.o(i.vQueueAddToRegistry)
    vQueueDelete                             0x6000964d   Thumb Code    44  queue.o(i.vQueueDelete)
    vQueueUnregisterQueue                    0x60009679   Thumb Code    44  queue.o(i.vQueueUnregisterQueue)
    vQueueWaitForMessageRestricted           0x600096a9   Thumb Code    74  queue.o(i.vQueueWaitForMessageRestricted)
    vTaskDelay                               0x600096f5   Thumb Code    82  tasks.o(i.vTaskDelay)
    vTaskMissedYield                         0x60009751   Thumb Code     8  tasks.o(i.vTaskMissedYield)
    vTaskPlaceOnEventList                    0x6000975d   Thumb Code    52  tasks.o(i.vTaskPlaceOnEventList)
    vTaskPlaceOnEventListRestricted          0x60009795   Thumb Code    60  tasks.o(i.vTaskPlaceOnEventListRestricted)
    vTaskPriorityInherit                     0x600097d5   Thumb Code   164  tasks.o(i.vTaskPriorityInherit)
    vTaskSetTimeOutState                     0x60009885   Thumb Code    38  tasks.o(i.vTaskSetTimeOutState)
    vTaskStartScheduler                      0x600098b5   Thumb Code   118  tasks.o(i.vTaskStartScheduler)
    vTaskSuspend                             0x60009949   Thumb Code   196  tasks.o(i.vTaskSuspend)
    vTaskSuspendAll                          0x60009a2d   Thumb Code    12  tasks.o(i.vTaskSuspendAll)
    vTaskSwitchContext                       0x60009a3d   Thumb Code   118  tasks.o(i.vTaskSwitchContext)
    xPortStartScheduler                      0x60009ac9   Thumb Code   288  port.o(i.xPortStartScheduler)
    xQueueCreateMutex                        0x60009c05   Thumb Code    34  queue.o(i.xQueueCreateMutex)
    xQueueGenericCreate                      0x60009c27   Thumb Code    88  queue.o(i.xQueueGenericCreate)
    xQueueGenericReceive                     0x60009c81   Thumb Code   446  queue.o(i.xQueueGenericReceive)
    xQueueGenericReset                       0x60009e45   Thumb Code   146  queue.o(i.xQueueGenericReset)
    xQueueGenericSend                        0x60009edd   Thumb Code   420  queue.o(i.xQueueGenericSend)
    xQueueGenericSendFromISR                 0x6000a085   Thumb Code   248  queue.o(i.xQueueGenericSendFromISR)
    xQueueGiveFromISR                        0x6000a17d   Thumb Code   224  queue.o(i.xQueueGiveFromISR)
    xTaskCheckForTimeOut                     0x6000a25d   Thumb Code   132  tasks.o(i.xTaskCheckForTimeOut)
    xTaskCreate                              0x6000a2e9   Thumb Code    96  tasks.o(i.xTaskCreate)
    xTaskGetSchedulerState                   0x6000a349   Thumb Code    24  tasks.o(i.xTaskGetSchedulerState)
    xTaskGetTickCount                        0x6000a369   Thumb Code     6  tasks.o(i.xTaskGetTickCount)
    xTaskIncrementTick                       0x6000a375   Thumb Code   256  tasks.o(i.xTaskIncrementTick)
    xTaskPriorityDisinherit                  0x6000a4a1   Thumb Code   188  tasks.o(i.xTaskPriorityDisinherit)
    xTaskRemoveFromEventList                 0x6000a569   Thumb Code   128  tasks.o(i.xTaskRemoveFromEventList)
    xTaskResumeAll                           0x6000a601   Thumb Code   224  tasks.o(i.xTaskResumeAll)
    xTimerCreateTimerTask                    0x6000a705   Thumb Code    64  timers.o(i.xTimerCreateTimerTask)
    xTimerGenericCommand                     0x6000a759   Thumb Code   128  timers.o(i.xTimerGenericCommand)
    _get_lc_ctype                            0x6000a7dd   Thumb Code    44  lc_ctype_c.o(locale$$code)
    _fp_init                                 0x6000a809   Thumb Code    10  fpinit.o(x$fpl$fpinit)
    __fplib_config_fpu_vfp                   0x6000a811   Thumb Code     0  fpinit.o(x$fpl$fpinit)
    __fplib_config_pureend_doubles           0x6000a811   Thumb Code     0  fpinit.o(x$fpl$fpinit)
    armPllConfig                             0x6000a81c   Data           4  clock_config.o(.constdata)
    sysPllConfig                             0x6000a820   Data          12  clock_config.o(.constdata)
    usb1PllConfig                            0x6000a82c   Data           1  clock_config.o(.constdata)
    FreeRTOSDebugConfig                      0x6000a916   Data          16  tasks.o(.constdata)
    Region$$Table$$Base                      0x6000abac   Number         0  anon$$obj.o(Region$$Table)
    Region$$Table$$Limit                     0x6000abcc   Number         0  anon$$obj.o(Region$$Table)
    __ctype                                  0x6000abd9   Data           0  lc_ctype_c.o(locale$$data)



==============================================================================

Memory Map of the image

  Image Entry point : 0x60002401

  Load Region LR_m_text (Base: 0x60002400, Size: 0x000089b8, Max: 0x1f7fdc00, ABSOLUTE)

    Execution Region RW_m_data (Exec base: 0x20000000, Load base: 0x6000acdc, Size: 0x00002c6c, Max: 0x0001f800, ABSOLUTE)

    Exec Addr    Load Addr    Size         Type   Attr      Idx    E Section Name        Object

    0x20000000   0x6000acdc   0x00000008   Data   RW          387    .data               fsl_clock.o
    0x20000008   0x6000ace4   0x00000018   Data   RW          636    .data               fsl_flexio.o
    0x20000020   0x6000acfc   0x00000008   Data   RW          853    .data               fsl_lpi2c.o
    0x20000028   0x6000ad04   0x00000004   Data   RW         1243    .data               fsl_lpuart.o
    0x2000002c   0x6000ad08   0x0000003c   Data   RW         2227    .data               tasks.o
    0x20000068   0x6000ad44   0x00000014   Data   RW         2544    .data               timers.o
    0x2000007c   0x6000ad58   0x0000000c   Data   RW         2673    .data               port.o
    0x20000088   0x6000ad64   0x00000018   Data   RW         2760    .data               heap_4.o
    0x200000a0   0x6000ad7c   0x00000004   Data   RW         2814    .data               system_mimxrt1052.o
    0x200000a4   0x6000ad80   0x00000008   Data   RW         2934    .data               fsl_io.o
    0x200000ac   0x6000ad88   0x0000000c   Data   RW         3225    .data               fsl_shell.o
    0x200000b8   0x6000ad94   0x00000006   Data   RW         3556    .data               app.o
    0x200000be   0x6000ad9a   0x00000008   Data   RW         3658    .data               common.o
    0x200000c6   0x6000ada2   0x00000002   PAD
    0x200000c8   0x6000ada4   0x00000012   Data   RW         3827    .data               vl53l0x.o
    0x200000da   0x6000adb6   0x00000002   PAD
    0x200000dc        -       0x00000020   Zero   RW          851    .bss                fsl_lpi2c.o
    0x200000fc        -       0x00000024   Zero   RW         1241    .bss                fsl_lpuart.o
    0x20000120        -       0x00000040   Zero   RW         2002    .bss                queue.o
    0x20000160        -       0x0000012c   Zero   RW         2225    .bss                tasks.o
    0x2000028c        -       0x00000028   Zero   RW         2543    .bss                timers.o
    0x200002b4        -       0x00002800   Zero   RW         2759    .bss                heap_4.o
    0x20002ab4        -       0x00000094   Zero   RW         3222    .bss                fsl_shell.o
    0x20002b48        -       0x000000c4   Zero   RW         3826    .bss                vl53l0x.o
    0x20002c0c        -       0x00000060   Zero   RW         4063    .bss                c_w.l(libspace.o)


    Execution Region ARM_LIB_HEAP (Exec base: 0x20002c6c, Load base: 0x6000adb8, Size: 0x00000400, Max: 0x00000400, ABSOLUTE)

    Exec Addr    Load Addr    Size         Type   Attr      Idx    E Section Name        Object

    0x20002c6c        -       0x00000400   Zero   RW            1    ARM_LIB_HEAP.bss    anon$$obj.o


    Execution Region ARM_LIB_STACK (Exec base: 0x2001fc00, Load base: 0x6000adb8, Size: 0x00000400, Max: 0x00000400, ABSOLUTE)

    Exec Addr    Load Addr    Size         Type   Attr      Idx    E Section Name        Object

    0x2001fc00        -       0x00000400   Zero   RW            2    ARM_LIB_STACK.bss   anon$$obj.o


    Execution Region ER_m_text (Exec base: 0x60002400, Load base: 0x60002400, Size: 0x000088dc, Max: 0x1f7fdc00, ABSOLUTE)

    Exec Addr    Load Addr    Size         Type   Attr      Idx    E Section Name        Object

    0x60002400   0x60002400   0x00000008   Code   RO         3970  * !!!main             c_w.l(__main.o)
    0x60002408   0x60002408   0x00000034   Code   RO         4219    !!!scatter          c_w.l(__scatter.o)
    0x6000243c   0x6000243c   0x0000001a   Code   RO         4221    !!handler_copy      c_w.l(__scatter_copy.o)
    0x60002456   0x60002456   0x00000002   PAD
    0x60002458   0x60002458   0x0000001c   Code   RO         4223    !!handler_zi        c_w.l(__scatter_zi.o)
    0x60002474   0x60002474   0x00000002   Code   RO         4150    .ARM.Collect$$libinit$$00000000  c_w.l(libinit.o)
    0x60002476   0x60002476   0x00000004   Code   RO         4015    .ARM.Collect$$libinit$$00000001  c_w.l(libinit2.o)
    0x6000247a   0x6000247a   0x00000000   Code   RO         4018    .ARM.Collect$$libinit$$00000004  c_w.l(libinit2.o)
    0x6000247a   0x6000247a   0x00000000   Code   RO         4021    .ARM.Collect$$libinit$$0000000A  c_w.l(libinit2.o)
    0x6000247a   0x6000247a   0x00000000   Code   RO         4023    .ARM.Collect$$libinit$$0000000C  c_w.l(libinit2.o)
    0x6000247a   0x6000247a   0x00000000   Code   RO         4025    .ARM.Collect$$libinit$$0000000E  c_w.l(libinit2.o)
    0x6000247a   0x6000247a   0x00000006   Code   RO         4026    .ARM.Collect$$libinit$$0000000F  c_w.l(libinit2.o)
    0x60002480   0x60002480   0x00000000   Code   RO         4028    .ARM.Collect$$libinit$$00000011  c_w.l(libinit2.o)
    0x60002480   0x60002480   0x0000000c   Code   RO         4029    .ARM.Collect$$libinit$$00000012  c_w.l(libinit2.o)
    0x6000248c   0x6000248c   0x00000000   Code   RO         4030    .ARM.Collect$$libinit$$00000013  c_w.l(libinit2.o)
    0x6000248c   0x6000248c   0x00000000   Code   RO         4032    .ARM.Collect$$libinit$$00000015  c_w.l(libinit2.o)
    0x6000248c   0x6000248c   0x00000000   Code   RO         4034    .ARM.Collect$$libinit$$00000017  c_w.l(libinit2.o)
    0x6000248c   0x6000248c   0x00000000   Code   RO         4036    .ARM.Collect$$libinit$$00000019  c_w.l(libinit2.o)
    0x6000248c   0x6000248c   0x00000000   Code   RO         4038    .ARM.Collect$$libinit$$0000001B  c_w.l(libinit2.o)
    0x6000248c   0x6000248c   0x00000000   Code   RO         4040    .ARM.Collect$$libinit$$0000001D  c_w.l(libinit2.o)
    0x6000248c   0x6000248c   0x00000000   Code   RO         4042    .ARM.Collect$$libinit$$0000001F  c_w.l(libinit2.o)
    0x6000248c   0x6000248c   0x00000004   Code   RO         4043    .ARM.Collect$$libinit$$00000020  c_w.l(libinit2.o)
    0x60002490   0x60002490   0x00000000   Code   RO         4046    .ARM.Collect$$libinit$$00000023  c_w.l(libinit2.o)
    0x60002490   0x60002490   0x00000000   Code   RO         4048    .ARM.Collect$$libinit$$00000025  c_w.l(libinit2.o)
    0x60002490   0x60002490   0x00000000   Code   RO         4052    .ARM.Collect$$libinit$$0000002C  c_w.l(libinit2.o)
    0x60002490   0x60002490   0x00000000   Code   RO         4054    .ARM.Collect$$libinit$$0000002E  c_w.l(libinit2.o)
    0x60002490   0x60002490   0x00000000   Code   RO         4056    .ARM.Collect$$libinit$$00000030  c_w.l(libinit2.o)
    0x60002490   0x60002490   0x00000000   Code   RO         4058    .ARM.Collect$$libinit$$00000032  c_w.l(libinit2.o)
    0x60002490   0x60002490   0x00000002   Code   RO         4059    .ARM.Collect$$libinit$$00000033  c_w.l(libinit2.o)
    0x60002492   0x60002492   0x00000002   Code   RO         4216    .ARM.Collect$$libshutdown$$00000000  c_w.l(libshutdown.o)
    0x60002494   0x60002494   0x00000000   Code   RO         4174    .ARM.Collect$$libshutdown$$00000002  c_w.l(libshutdown2.o)
    0x60002494   0x60002494   0x00000000   Code   RO         4176    .ARM.Collect$$libshutdown$$00000004  c_w.l(libshutdown2.o)
    0x60002494   0x60002494   0x00000000   Code   RO         4179    .ARM.Collect$$libshutdown$$00000007  c_w.l(libshutdown2.o)
    0x60002494   0x60002494   0x00000000   Code   RO         4182    .ARM.Collect$$libshutdown$$0000000A  c_w.l(libshutdown2.o)
    0x60002494   0x60002494   0x00000000   Code   RO         4184    .ARM.Collect$$libshutdown$$0000000C  c_w.l(libshutdown2.o)
    0x60002494   0x60002494   0x00000000   Code   RO         4187    .ARM.Collect$$libshutdown$$0000000F  c_w.l(libshutdown2.o)
    0x60002494   0x60002494   0x00000002   Code   RO         4188    .ARM.Collect$$libshutdown$$00000010  c_w.l(libshutdown2.o)
    0x60002496   0x60002496   0x00000000   Code   RO         3974    .ARM.Collect$$rtentry$$00000000  c_w.l(__rtentry.o)
    0x60002496   0x60002496   0x00000000   Code   RO         4066    .ARM.Collect$$rtentry$$00000002  c_w.l(__rtentry2.o)
    0x60002496   0x60002496   0x00000004   Code   RO         4080    .ARM.Collect$$rtentry$$00000007  c_w.l(__rtentry7.o)
    0x6000249a   0x6000249a   0x00000000   Code   RO         4068    .ARM.Collect$$rtentry$$00000009  c_w.l(__rtentry2.o)
    0x6000249a   0x6000249a   0x00000004   Code   RO         4069    .ARM.Collect$$rtentry$$0000000A  c_w.l(__rtentry2.o)
    0x6000249e   0x6000249e   0x00000000   Code   RO         4071    .ARM.Collect$$rtentry$$0000000C  c_w.l(__rtentry2.o)
    0x6000249e   0x6000249e   0x00000008   Code   RO         4072    .ARM.Collect$$rtentry$$0000000D  c_w.l(__rtentry2.o)
    0x600024a6   0x600024a6   0x00000002   PAD
    0x600024a8   0x600024a8   0x00000004   Code   RO         4081    .ARM.Collect$$rtentry$$00002718  c_w.l(__rtentry7.o)
    0x600024ac   0x600024ac   0x00000002   Code   RO         4155    .ARM.Collect$$rtexit$$00000000  c_w.l(rtexit.o)
    0x600024ae   0x600024ae   0x00000000   Code   RO         4192    .ARM.Collect$$rtexit$$00000002  c_w.l(rtexit2.o)
    0x600024ae   0x600024ae   0x00000004   Code   RO         4193    .ARM.Collect$$rtexit$$00000003  c_w.l(rtexit2.o)
    0x600024b2   0x600024b2   0x00000006   Code   RO         4194    .ARM.Collect$$rtexit$$00000004  c_w.l(rtexit2.o)
    0x600024b8   0x600024b8   0x000000b6   Code   RO         2664    .emb_text           port.o
    0x6000256e   0x6000256e   0x00000002   PAD
    0x60002570   0x60002570   0x000001bc   Code   RO         2923    .text               startup_mimxrt1052.o
    0x6000272c   0x6000272c   0x000000ee   Code   RO         3952    .text               c_w.l(lludivv7m.o)
    0x6000281a   0x6000281a   0x0000001a   Code   RO         3954    .text               c_w.l(atoi.o)
    0x60002834   0x60002834   0x0000003e   Code   RO         3956    .text               c_w.l(strlen.o)
    0x60002872   0x60002872   0x0000008a   Code   RO         3958    .text               c_w.l(rt_memcpy_v6.o)
    0x600028fc   0x600028fc   0x00000084   Code   RO         3960    .text               c_w.l(rt_memmove_v6.o)
    0x60002980   0x60002980   0x00000064   Code   RO         3962    .text               c_w.l(rt_memcpy_w.o)
    0x600029e4   0x600029e4   0x00000010   Code   RO         3964    .text               c_w.l(aeabi_memset.o)
    0x600029f4   0x600029f4   0x00000044   Code   RO         3966    .text               c_w.l(rt_memclr.o)
    0x60002a38   0x60002a38   0x0000004e   Code   RO         3968    .text               c_w.l(rt_memclr_w.o)
    0x60002a86   0x60002a86   0x00000002   PAD
    0x60002a88   0x60002a88   0x00000008   Code   RO         3987    .text               c_w.l(rt_errno_addr_intlibspace.o)
    0x60002a90   0x60002a90   0x00000070   Code   RO         4009    .text               c_w.l(strtol.o)
    0x60002b00   0x60002b00   0x0000007a   Code   RO         4011    .text               c_w.l(rt_memmove_w.o)
    0x60002b7a   0x60002b7a   0x00000002   PAD
    0x60002b7c   0x60002b7c   0x00000010   Code   RO         4085    .text               c_w.l(rt_ctype_table.o)
    0x60002b8c   0x60002b8c   0x0000009e   Code   RO         4097    .text               c_w.l(_strtoul.o)
    0x60002c2a   0x60002c2a   0x00000002   Code   RO         4112    .text               c_w.l(use_no_semi.o)
    0x60002c2c   0x60002c2c   0x00000000   Code   RO         4114    .text               c_w.l(indicate_semi.o)
    0x60002c2c   0x60002c2c   0x00000008   Code   RO         4122    .text               c_w.l(rt_locale_intlibspace.o)
    0x60002c34   0x60002c34   0x0000001c   Code   RO         4126    .text               c_w.l(_chval.o)
    0x60002c50   0x60002c50   0x00000012   Code   RO         4131    .text               c_w.l(exit.o)
    0x60002c62   0x60002c62   0x00000002   PAD
    0x60002c64   0x60002c64   0x0000000c   Code   RO         4151    .text               c_w.l(sys_exit.o)
    0x60002c70   0x60002c70   0x00000068   Code   RO         4167    .text               c_w.l(strcmpv7m_pel.o)
    0x60002cd8   0x60002cd8   0x000000d0   Code   RO         3209    i.AutoComplete      fsl_shell.o
    0x60002da8   0x60002da8   0x00000040   Code   RO          141    i.BOARD_BootClockGate  clock_config.o
    0x60002de8   0x60002de8   0x000000cc   Code   RO          142    i.BOARD_BootClockRUN  clock_config.o
    0x60002eb4   0x60002eb4   0x00000194   Code   RO            6    i.BOARD_ConfigMPU   board.o
    0x60003048   0x60003048   0x00000074   Code   RO            7    i.BOARD_DebugConsoleSrcFreq  board.o
    0x600030bc   0x600030bc   0x0000001c   Code   RO            8    i.BOARD_InitDebugConsole  board.o
    0x600030d8   0x600030d8   0x00000334   Code   RO          197    i.BOARD_InitPins    pin_mux.o
    0x6000340c   0x6000340c   0x0000006c   Code   RO          799    i.CLOCK_ControlGate  fsl_lpi2c.o
    0x60003478   0x60003478   0x0000006c   Code   RO         1205    i.CLOCK_ControlGate  fsl_lpuart.o
    0x600034e4   0x600034e4   0x0000006c   Code   RO         1581    i.CLOCK_ControlGate  fsl_pwm.o
    0x60003550   0x60003550   0x0000006c   Code   RO         1692    i.CLOCK_ControlGate  fsl_xbara.o
    0x600035bc   0x600035bc   0x00000010   Code   RO          352    i.CLOCK_DeinitAudioPll  fsl_clock.o
    0x600035cc   0x600035cc   0x00000010   Code   RO          353    i.CLOCK_DeinitEnetPll  fsl_clock.o
    0x600035dc   0x600035dc   0x0000000c   Code   RO          360    i.CLOCK_DeinitUsb2Pll  fsl_clock.o
    0x600035e8   0x600035e8   0x00000010   Code   RO          361    i.CLOCK_DeinitVideoPll  fsl_clock.o
    0x600035f8   0x600035f8   0x00000074   Code   RO          199    i.CLOCK_EnableClock  pin_mux.o
    0x6000366c   0x6000366c   0x00000074   Code   RO          744    i.CLOCK_EnableClock  fsl_gpio.o
    0x600036e0   0x600036e0   0x0000000e   Code   RO          801    i.CLOCK_EnableClock  fsl_lpi2c.o
    0x600036ee   0x600036ee   0x00000002   PAD
    0x600036f0   0x600036f0   0x00000074   Code   RO         3439    i.CLOCK_EnableClock  cleanbot_main.o
    0x60003764   0x60003764   0x00000024   Code   RO            9    i.CLOCK_GetDiv      board.o
    0x60003788   0x60003788   0x00000168   Code   RO          368    i.CLOCK_GetFreq     fsl_clock.o
    0x600038f0   0x600038f0   0x00000020   Code   RO          369    i.CLOCK_GetOscFreq  fsl_clock.o
    0x60003910   0x60003910   0x000000b8   Code   RO          370    i.CLOCK_GetPeriphClkFreq  fsl_clock.o
    0x600039c8   0x600039c8   0x000001dc   Code   RO          371    i.CLOCK_GetPllFreq  fsl_clock.o
    0x60003ba4   0x60003ba4   0x00000068   Code   RO          372    i.CLOCK_GetSysPfdFreq  fsl_clock.o
    0x60003c0c   0x60003c0c   0x00000068   Code   RO          373    i.CLOCK_GetUsb1PfdFreq  fsl_clock.o
    0x60003c74   0x60003c74   0x00000024   Code   RO          374    i.CLOCK_InitArmPll  fsl_clock.o
    0x60003c98   0x60003c98   0x00000024   Code   RO          382    i.CLOCK_InitUsb1Pll  fsl_clock.o
    0x60003cbc   0x60003cbc   0x000000a8   Code   RO          143    i.CLOCK_SetDiv      clock_config.o
    0x60003d64   0x60003d64   0x00000070   Code   RO         3440    i.CLOCK_SetDiv      cleanbot_main.o
    0x60003dd4   0x60003dd4   0x000000a8   Code   RO         3754    i.CLOCK_SetDiv      motor.o
    0x60003e7c   0x60003e7c   0x000000a8   Code   RO          144    i.CLOCK_SetMux      clock_config.o
    0x60003f24   0x60003f24   0x0000008c   Code   RO         3441    i.CLOCK_SetMux      cleanbot_main.o
    0x60003fb0   0x60003fb0   0x00000050   Code   RO           10    i.Collision_Detect_Init  board.o
    0x60004000   0x60004000   0x000000b0   Code   RO         3545    i.Collision_Detection_task  app.o
    0x600040b0   0x600040b0   0x00000024   Code   RO         3694    i.Command_Register  shell_command.o
    0x600040d4   0x600040d4   0x000000a8   Code   RO         2983    i.ConvertRadixNumToString  fsl_str.o
    0x6000417c   0x6000417c   0x0000000e   Code   RO         3115    i.DbgConsole_Getchar  fsl_debug_console.o
    0x6000418a   0x6000418a   0x00000002   PAD
    0x6000418c   0x6000418c   0x00000080   Code   RO         3116    i.DbgConsole_Init   fsl_debug_console.o
    0x6000420c   0x6000420c   0x00000040   Code   RO         3117    i.DbgConsole_Printf  fsl_debug_console.o
    0x6000424c   0x6000424c   0x0000000c   Code   RO         3118    i.DbgConsole_Putchar  fsl_debug_console.o
    0x60004258   0x60004258   0x0000003e   Code   RO         3119    i.DbgConsole_RelocateLog  fsl_debug_console.o
    0x60004296   0x60004296   0x0000002c   Code   RO          802    i.EnableIRQ         fsl_lpi2c.o
    0x600042c2   0x600042c2   0x00000002   PAD
    0x600042c4   0x600042c4   0x0000002c   Code   RO         3210    i.ExitCommand       fsl_shell.o
    0x600042f0   0x600042f0   0x00000008   Code   RO          620    i.FLEXIO1_DriverIRQHandler  fsl_flexio.o
    0x600042f8   0x600042f8   0x00000008   Code   RO          621    i.FLEXIO2_DriverIRQHandler  fsl_flexio.o
    0x60004300   0x60004300   0x00000038   Code   RO          622    i.FLEXIO_CommonIRQHandler  fsl_flexio.o
    0x60004338   0x60004338   0x000000b0   Code   RO         3442    i.GPIO4_Combined_0_15_IRQHandler  cleanbot_main.o
    0x600043e8   0x600043e8   0x00000078   Code   RO          745    i.GPIO_GetInstance  fsl_gpio.o
    0x60004460   0x60004460   0x00000064   Code   RO          746    i.GPIO_PinInit      fsl_gpio.o
    0x600044c4   0x600044c4   0x0000004c   Code   RO         3443    i.GPIO_PinRead      cleanbot_main.o
    0x60004510   0x60004510   0x0000008a   Code   RO          747    i.GPIO_PinSetInterruptConfig  fsl_gpio.o
    0x6000459a   0x6000459a   0x00000002   PAD
    0x6000459c   0x6000459c   0x00000060   Code   RO          748    i.GPIO_PinWrite     fsl_gpio.o
    0x600045fc   0x600045fc   0x00000008   Code   RO         3546    i.GPIO_PortClear    app.o
    0x60004604   0x60004604   0x00000008   Code   RO         3755    i.GPIO_PortClear    motor.o
    0x6000460c   0x6000460c   0x00000004   Code   RO         3444    i.GPIO_PortClearInterruptFlags  cleanbot_main.o
    0x60004610   0x60004610   0x00000008   Code   RO         3547    i.GPIO_PortEnableInterrupts  app.o
    0x60004618   0x60004618   0x00000008   Code   RO         3548    i.GPIO_PortSet      app.o
    0x60004620   0x60004620   0x00000008   Code   RO         3756    i.GPIO_PortSet      motor.o
    0x60004628   0x60004628   0x00000012   Code   RO         3211    i.GetChar           fsl_shell.o
    0x6000463a   0x6000463a   0x00000002   PAD
    0x6000463c   0x6000463c   0x0000007c   Code   RO         3212    i.GetHistoryCommand  fsl_shell.o
    0x600046b8   0x600046b8   0x00000034   Code   RO         3213    i.HelpCommand       fsl_shell.o
    0x600046ec   0x600046ec   0x0000000c   Code   RO          200    i.IOMUXC_SetPinConfig  pin_mux.o
    0x600046f8   0x600046f8   0x0000001a   Code   RO          201    i.IOMUXC_SetPinMux  pin_mux.o
    0x60004712   0x60004712   0x00000002   PAD
    0x60004714   0x60004714   0x000000b4   Code   RO         2931    i.IO_Init           fsl_io.o
    0x600047c8   0x600047c8   0x00000044   Code   RO         2932    i.IO_Transfer       fsl_io.o
    0x6000480c   0x6000480c   0x00000044   Code   RO           11    i.IR_SENSOR_INIT    board.o
    0x60004850   0x60004850   0x00000024   Code   RO         3034    i.LOG_Init          fsl_log.o
    0x60004874   0x60004874   0x00000022   Code   RO         3035    i.LOG_Pop           fsl_log.o
    0x60004896   0x60004896   0x00000002   PAD
    0x60004898   0x60004898   0x00000050   Code   RO         3036    i.LOG_Push          fsl_log.o
    0x600048e8   0x600048e8   0x0000005c   Code   RO         3037    i.LOG_ReadCharacter  fsl_log.o
    0x60004944   0x60004944   0x00000018   Code   RO         3039    i.LOG_ReadOneCharacter  fsl_log.o
    0x6000495c   0x6000495c   0x00000010   Code   RO          803    i.LPI2C1_DriverIRQHandler  fsl_lpi2c.o
    0x6000496c   0x6000496c   0x00000010   Code   RO          804    i.LPI2C2_DriverIRQHandler  fsl_lpi2c.o
    0x6000497c   0x6000497c   0x00000010   Code   RO          805    i.LPI2C3_DriverIRQHandler  fsl_lpi2c.o
    0x6000498c   0x6000498c   0x00000022   Code   RO          806    i.LPI2C_CheckForBusyBus  fsl_lpi2c.o
    0x600049ae   0x600049ae   0x00000002   PAD
    0x600049b0   0x600049b0   0x00000054   Code   RO          807    i.LPI2C_CommonIRQHandler  fsl_lpi2c.o
    0x60004a04   0x60004a04   0x00000040   Code   RO          808    i.LPI2C_GetCyclesForWidth  fsl_lpi2c.o
    0x60004a44   0x60004a44   0x00000054   Code   RO          809    i.LPI2C_GetInstance  fsl_lpi2c.o
    0x60004a98   0x60004a98   0x000000c2   Code   RO          810    i.LPI2C_InitTransferStateMachine  fsl_lpi2c.o
    0x60004b5a   0x60004b5a   0x00000002   PAD
    0x60004b5c   0x60004b5c   0x0000008c   Code   RO          811    i.LPI2C_MasterCheckAndClearError  fsl_lpi2c.o
    0x60004be8   0x60004be8   0x00000004   Code   RO          812    i.LPI2C_MasterClearStatusFlags  fsl_lpi2c.o
    0x60004bec   0x60004bec   0x00000008   Code   RO          815    i.LPI2C_MasterDisableInterrupts  fsl_lpi2c.o
    0x60004bf4   0x60004bf4   0x0000000a   Code   RO          816    i.LPI2C_MasterEnable  fsl_lpi2c.o
    0x60004bfe   0x60004bfe   0x00000008   Code   RO          817    i.LPI2C_MasterEnableInterrupts  fsl_lpi2c.o
    0x60004c06   0x60004c06   0x00000002   PAD
    0x60004c08   0x60004c08   0x00000030   Code   RO          818    i.LPI2C_MasterGetDefaultConfig  fsl_lpi2c.o
    0x60004c38   0x60004c38   0x00000016   Code   RO          819    i.LPI2C_MasterGetFifoCounts  fsl_lpi2c.o
    0x60004c4e   0x60004c4e   0x00000006   Code   RO          820    i.LPI2C_MasterGetStatusFlags  fsl_lpi2c.o
    0x60004c54   0x60004c54   0x00000138   Code   RO          821    i.LPI2C_MasterInit  fsl_lpi2c.o
    0x60004d8c   0x60004d8c   0x000000a0   Code   RO          822    i.LPI2C_MasterReceive  fsl_lpi2c.o
    0x60004e2c   0x60004e2c   0x0000000a   Code   RO          823    i.LPI2C_MasterReset  fsl_lpi2c.o
    0x60004e36   0x60004e36   0x00000002   PAD
    0x60004e38   0x60004e38   0x00000070   Code   RO          824    i.LPI2C_MasterSend  fsl_lpi2c.o
    0x60004ea8   0x60004ea8   0x00000124   Code   RO          825    i.LPI2C_MasterSetBaudRate  fsl_lpi2c.o
    0x60004fcc   0x60004fcc   0x00000048   Code   RO          826    i.LPI2C_MasterStart  fsl_lpi2c.o
    0x60005014   0x60005014   0x0000004a   Code   RO          827    i.LPI2C_MasterStop  fsl_lpi2c.o
    0x6000505e   0x6000505e   0x00000002   PAD
    0x60005060   0x60005060   0x0000008c   Code   RO          830    i.LPI2C_MasterTransferCreateHandle  fsl_lpi2c.o
    0x600050ec   0x600050ec   0x00000046   Code   RO          832    i.LPI2C_MasterTransferHandleIRQ  fsl_lpi2c.o
    0x60005132   0x60005132   0x00000002   PAD
    0x60005134   0x60005134   0x00000104   Code   RO          833    i.LPI2C_MasterTransferNonBlocking  fsl_lpi2c.o
    0x60005238   0x60005238   0x0000003a   Code   RO          834    i.LPI2C_MasterWaitForTxReady  fsl_lpi2c.o
    0x60005272   0x60005272   0x00000002   PAD
    0x60005274   0x60005274   0x00000034   Code   RO         1131    i.LPI2C_RTOS_Callback  fsl_lpi2c_freertos.o
    0x600052a8   0x600052a8   0x0000006c   Code   RO         1133    i.LPI2C_RTOS_Init   fsl_lpi2c_freertos.o
    0x60005314   0x60005314   0x00000056   Code   RO         1134    i.LPI2C_RTOS_Transfer  fsl_lpi2c_freertos.o
    0x6000536a   0x6000536a   0x00000002   PAD
    0x6000536c   0x6000536c   0x000001a0   Code   RO          835    i.LPI2C_RunTransferStateMachine  fsl_lpi2c.o
    0x6000550c   0x6000550c   0x0000001c   Code   RO         1206    i.LPUART1_DriverIRQHandler  fsl_lpuart.o
    0x60005528   0x60005528   0x0000001c   Code   RO         1207    i.LPUART2_DriverIRQHandler  fsl_lpuart.o
    0x60005544   0x60005544   0x0000001c   Code   RO         1208    i.LPUART3_DriverIRQHandler  fsl_lpuart.o
    0x60005560   0x60005560   0x0000001c   Code   RO         1209    i.LPUART4_DriverIRQHandler  fsl_lpuart.o
    0x6000557c   0x6000557c   0x0000001c   Code   RO         1210    i.LPUART5_DriverIRQHandler  fsl_lpuart.o
    0x60005598   0x60005598   0x0000001c   Code   RO         1211    i.LPUART6_DriverIRQHandler  fsl_lpuart.o
    0x600055b4   0x600055b4   0x0000001c   Code   RO         1212    i.LPUART7_DriverIRQHandler  fsl_lpuart.o
    0x600055d0   0x600055d0   0x0000001c   Code   RO         1213    i.LPUART8_DriverIRQHandler  fsl_lpuart.o
    0x600055ec   0x600055ec   0x00000058   Code   RO         1214    i.LPUART_ClearStatusFlags  fsl_lpuart.o
    0x60005644   0x60005644   0x00000064   Code   RO         1218    i.LPUART_GetDefaultConfig  fsl_lpuart.o
    0x600056a8   0x600056a8   0x0000007c   Code   RO         1220    i.LPUART_GetInstance  fsl_lpuart.o
    0x60005724   0x60005724   0x00000010   Code   RO         1221    i.LPUART_GetStatusFlags  fsl_lpuart.o
    0x60005734   0x60005734   0x000002ec   Code   RO         1222    i.LPUART_Init       fsl_lpuart.o
    0x60005a20   0x60005a20   0x000000fc   Code   RO         1223    i.LPUART_ReadBlocking  fsl_lpuart.o
    0x60005b1c   0x60005b1c   0x00000060   Code   RO         1239    i.LPUART_WriteBlocking  fsl_lpuart.o
    0x60005b7c   0x60005b7c   0x00000040   Code   RO         3757    i.L_MOTOR_CTRL      motor.o
    0x60005bbc   0x60005bbc   0x0000000c   Code   RO         3549    i.L_MOTOR_task      app.o
    0x60005bc8   0x60005bc8   0x00000040   Code   RO         3695    i.LedControl        shell_command.o
    0x60005c08   0x60005c08   0x000000d4   Code   RO         3696    i.PWM_Control       shell_command.o
    0x60005cdc   0x60005cdc   0x0000019c   Code   RO         3758    i.PWM_DRV_Init      motor.o
    0x60005e78   0x60005e78   0x00000054   Code   RO         1586    i.PWM_GetDefaultConfig  fsl_pwm.o
    0x60005ecc   0x60005ecc   0x00000074   Code   RO         1588    i.PWM_GetInstance   fsl_pwm.o
    0x60005f40   0x60005f40   0x000001c8   Code   RO         1590    i.PWM_Init          fsl_pwm.o
    0x60006108   0x60006108   0x00000026   Code   RO         3759    i.PWM_SetPwmLdok    motor.o
    0x6000612e   0x6000612e   0x00000002   PAD
    0x60006130   0x60006130   0x00000380   Code   RO         1594    i.PWM_SetupPwm      fsl_pwm.o
    0x600064b0   0x600064b0   0x00000244   Code   RO         1595    i.PWM_UpdatePwmDutycycle  fsl_pwm.o
    0x600066f4   0x600066f4   0x0000008c   Code   RO         3214    i.ParseLine         fsl_shell.o
    0x60006780   0x60006780   0x000001bc   Code   RO         3215    i.ProcessCommand    fsl_shell.o
    0x6000693c   0x6000693c   0x00000040   Code   RO         3760    i.R_MOTOR_CTRL      motor.o
    0x6000697c   0x6000697c   0x0000000c   Code   RO         3550    i.R_MOTOR_task      app.o
    0x60006988   0x60006988   0x00000154   Code   RO         3551    i.Route_Planning_task  app.o
    0x60006adc   0x60006adc   0x000000a0   Code   RO           12    i.SCB_DisableDCache  board.o
    0x60006b7c   0x60006b7c   0x0000009c   Code   RO           13    i.SCB_EnableDCache  board.o
    0x60006c18   0x60006c18   0x0000009c   Code   RO         2804    i.SCB_EnableDCache  system_mimxrt1052.o
    0x60006cb4   0x60006cb4   0x0000007c   Code   RO           14    i.SCB_EnableICache  board.o
    0x60006d30   0x60006d30   0x0000007c   Code   RO         2805    i.SCB_EnableICache  system_mimxrt1052.o
    0x60006dac   0x60006dac   0x0000000c   Code   RO         2806    i.SDRAM_Init        system_mimxrt1052.o
    0x60006db8   0x60006db8   0x0000001c   Code   RO         2807    i.SDRAM_WaitIpCmdDone  system_mimxrt1052.o
    0x60006dd4   0x60006dd4   0x000000e0   Code   RO         3216    i.SHELL_Init        fsl_shell.o
    0x60006eb4   0x60006eb4   0x00000318   Code   RO         3217    i.SHELL_Main        fsl_shell.o
    0x600071cc   0x600071cc   0x0000001a   Code   RO         3697    i.SHELL_ReceiveDataCallback  shell_command.o
    0x600071e6   0x600071e6   0x00000002   PAD
    0x600071e8   0x600071e8   0x00000034   Code   RO         3218    i.SHELL_RegisterCommand  fsl_shell.o
    0x6000721c   0x6000721c   0x0000001a   Code   RO         3698    i.SHELL_SendDataCallback  shell_command.o
    0x60007236   0x60007236   0x00000002   PAD
    0x60007238   0x60007238   0x00000040   Code   RO         3552    i.Shell_task        app.o
    0x60007278   0x60007278   0x00000068   Code   RO         3553    i.StateLED_task     app.o
    0x600072e0   0x600072e0   0x0000002a   Code   RO         3219    i.StrCompare        fsl_shell.o
    0x6000730a   0x6000730a   0x0000001a   Code   RO         3220    i.StrCopy           fsl_shell.o
    0x60007324   0x60007324   0x0000022e   Code   RO         2985    i.StrFormatPrintf   fsl_str.o
    0x60007552   0x60007552   0x00000012   Code   RO         3221    i.StrLen            fsl_shell.o
    0x60007564   0x60007564   0x00000034   Code   RO         2665    i.SysTick_Handler   port.o
    0x60007598   0x60007598   0x00000130   Code   RO         2808    i.SystemCoreClockUpdate  system_mimxrt1052.o
    0x600076c8   0x600076c8   0x00000094   Code   RO         2809    i.SystemInit        system_mimxrt1052.o
    0x6000775c   0x6000775c   0x0000000c   Code   RO         3657    i.TaskDelay_ms      common.o
    0x60007768   0x60007768   0x000000bc   Code   RO         3699    i.VL53L0X_Control   shell_command.o
    0x60007824   0x60007824   0x000000cc   Code   RO         3820    i.VL53L0X_Init      vl53l0x.o
    0x600078f0   0x600078f0   0x00000058   Code   RO         3821    i.VL53L0X_Read_Buf  vl53l0x.o
    0x60007948   0x60007948   0x0000007c   Code   RO         3822    i.VL53L0X_Read_Byte  vl53l0x.o
    0x600079c4   0x600079c4   0x00000040   Code   RO         3823    i.VL53L0X_Write_Byte  vl53l0x.o
    0x60007a04   0x60007a04   0x000001fc   Code   RO         3554    i.VL53L0X_task      app.o
    0x60007c00   0x60007c00   0x00000078   Code   RO         1695    i.XBARA_GetInstance  fsl_xbara.o
    0x60007c78   0x60007c78   0x00000020   Code   RO         1697    i.XBARA_Init        fsl_xbara.o
    0x60007c98   0x60007c98   0x0000002a   Code   RO         1699    i.XBARA_SetSignalsConnection  fsl_xbara.o
    0x60007cc2   0x60007cc2   0x00000006   Code   RO         2810    i._RDWORD           system_mimxrt1052.o
    0x60007cc8   0x60007cc8   0x00000004   Code   RO         2811    i._WDWORD           system_mimxrt1052.o
    0x60007ccc   0x60007ccc   0x00000044   Code   RO         3307    i.__aeabi_assert    fsl_assert.o
    0x60007d10   0x60007d10   0x00000084   Code   RO         2812    i._clock_init       system_mimxrt1052.o
    0x60007d94   0x60007d94   0x000004f8   Code   RO         2813    i._sdr_Init         system_mimxrt1052.o
    0x6000828c   0x6000828c   0x00000438   Code   RO         3555    i.hello_task        app.o
    0x600086c4   0x600086c4   0x00000194   Code   RO         3445    i.main              cleanbot_main.o
    0x60008858   0x60008858   0x0000000c   Code   RO         3825    i.makeuint16        vl53l0x.o
    0x60008864   0x60008864   0x00000098   Code   RO         2169    i.prvAddCurrentTaskToDelayedList  tasks.o
    0x600088fc   0x600088fc   0x000000b8   Code   RO         2170    i.prvAddNewTaskToReadyList  tasks.o
    0x600089b4   0x600089b4   0x00000064   Code   RO         2522    i.prvCheckForValidListAndQueue  timers.o
    0x60008a18   0x60008a18   0x00000064   Code   RO         2171    i.prvCheckTasksWaitingTermination  tasks.o
    0x60008a7c   0x60008a7c   0x0000002a   Code   RO         1971    i.prvCopyDataFromQueue  queue.o
    0x60008aa6   0x60008aa6   0x0000007c   Code   RO         1972    i.prvCopyDataToQueue  queue.o
    0x60008b22   0x60008b22   0x00000012   Code   RO         2172    i.prvDeleteTCB      tasks.o
    0x60008b34   0x60008b34   0x00000028   Code   RO         2523    i.prvGetNextExpireTime  timers.o
    0x60008b5c   0x60008b5c   0x0000007c   Code   RO         2752    i.prvHeapInit       heap_4.o
    0x60008bd8   0x60008bd8   0x00000028   Code   RO         2173    i.prvIdleTask       tasks.o
    0x60008c00   0x60008c00   0x0000001c   Code   RO         1973    i.prvInitialiseMutex  queue.o
    0x60008c1c   0x60008c1c   0x0000002a   Code   RO         1974    i.prvInitialiseNewQueue  queue.o
    0x60008c46   0x60008c46   0x000000ce   Code   RO         2174    i.prvInitialiseNewTask  tasks.o
    0x60008d14   0x60008d14   0x00000068   Code   RO         2175    i.prvInitialiseTaskLists  tasks.o
    0x60008d7c   0x60008d7c   0x00000068   Code   RO         2753    i.prvInsertBlockIntoFreeList  heap_4.o
    0x60008de4   0x60008de4   0x00000058   Code   RO         2525    i.prvInsertTimerInActiveList  timers.o
    0x60008e3c   0x60008e3c   0x0000001a   Code   RO         1975    i.prvIsQueueEmpty   queue.o
    0x60008e56   0x60008e56   0x0000001e   Code   RO         1976    i.prvIsQueueFull    queue.o
    0x60008e74   0x60008e74   0x00000064   Code   RO         2526    i.prvProcessExpiredTimer  timers.o
    0x60008ed8   0x60008ed8   0x00000124   Code   RO         2527    i.prvProcessReceivedCommands  timers.o
    0x60008ffc   0x60008ffc   0x00000074   Code   RO         2528    i.prvProcessTimerOrBlockTask  timers.o
    0x60009070   0x60009070   0x00000034   Code   RO         2177    i.prvResetNextTaskUnblockTime  tasks.o
    0x600090a4   0x600090a4   0x0000002c   Code   RO         2529    i.prvSampleTimeNow  timers.o
    0x600090d0   0x600090d0   0x000000a0   Code   RO         2530    i.prvSwitchTimerLists  timers.o
    0x60009170   0x60009170   0x00000040   Code   RO         2666    i.prvTaskExitError  port.o
    0x600091b0   0x600091b0   0x0000001a   Code   RO         2531    i.prvTimerTask      timers.o
    0x600091ca   0x600091ca   0x0000007e   Code   RO         1977    i.prvUnlockQueue    queue.o
    0x60009248   0x60009248   0x0000013c   Code   RO         2754    i.pvPortMalloc      heap_4.o
    0x60009384   0x60009384   0x00000020   Code   RO         2181    i.pvTaskIncrementMutexHeldCount  tasks.o
    0x600093a4   0x600093a4   0x0000002c   Code   RO         2667    i.pxPortInitialiseStack  port.o
    0x600093d0   0x600093d0   0x00000028   Code   RO         1934    i.uxListRemove      list.o
    0x600093f8   0x600093f8   0x0000001a   Code   RO         1935    i.vListInitialise   list.o
    0x60009412   0x60009412   0x00000006   Code   RO         1936    i.vListInitialiseItem  list.o
    0x60009418   0x60009418   0x00000034   Code   RO         1937    i.vListInsert       list.o
    0x6000944c   0x6000944c   0x00000018   Code   RO         1938    i.vListInsertEnd    list.o
    0x60009464   0x60009464   0x00000054   Code   RO         2669    i.vPortEnterCritical  port.o
    0x600094b8   0x600094b8   0x0000003c   Code   RO         2670    i.vPortExitCritical  port.o
    0x600094f4   0x600094f4   0x00000094   Code   RO         2755    i.vPortFree         heap_4.o
    0x60009588   0x60009588   0x00000020   Code   RO         2739    i.vPortSetupTimerInterrupt  fsl_tickless_systick.o
    0x600095a8   0x600095a8   0x00000078   Code   RO         2671    i.vPortValidateInterruptPriority  port.o
    0x60009620   0x60009620   0x0000002c   Code   RO         1983    i.vQueueAddToRegistry  queue.o
    0x6000964c   0x6000964c   0x0000002c   Code   RO         1984    i.vQueueDelete      queue.o
    0x60009678   0x60009678   0x00000030   Code   RO         1986    i.vQueueUnregisterQueue  queue.o
    0x600096a8   0x600096a8   0x0000004a   Code   RO         1987    i.vQueueWaitForMessageRestricted  queue.o
    0x600096f2   0x600096f2   0x00000002   PAD
    0x600096f4   0x600096f4   0x0000005c   Code   RO         2189    i.vTaskDelay        tasks.o
    0x60009750   0x60009750   0x0000000c   Code   RO         2194    i.vTaskMissedYield  tasks.o
    0x6000975c   0x6000975c   0x00000038   Code   RO         2196    i.vTaskPlaceOnEventList  tasks.o
    0x60009794   0x60009794   0x00000040   Code   RO         2197    i.vTaskPlaceOnEventListRestricted  tasks.o
    0x600097d4   0x600097d4   0x000000b0   Code   RO         2199    i.vTaskPriorityInherit  tasks.o
    0x60009884   0x60009884   0x00000030   Code   RO         2204    i.vTaskSetTimeOutState  tasks.o
    0x600098b4   0x600098b4   0x00000094   Code   RO         2205    i.vTaskStartScheduler  tasks.o
    0x60009948   0x60009948   0x000000e4   Code   RO         2206    i.vTaskSuspend      tasks.o
    0x60009a2c   0x60009a2c   0x00000010   Code   RO         2207    i.vTaskSuspendAll   tasks.o
    0x60009a3c   0x60009a3c   0x0000008c   Code   RO         2208    i.vTaskSwitchContext  tasks.o
    0x60009ac8   0x60009ac8   0x0000013c   Code   RO         2672    i.xPortStartScheduler  port.o
    0x60009c04   0x60009c04   0x00000022   Code   RO         1989    i.xQueueCreateMutex  queue.o
    0x60009c26   0x60009c26   0x00000058   Code   RO         1990    i.xQueueGenericCreate  queue.o
    0x60009c7e   0x60009c7e   0x00000002   PAD
    0x60009c80   0x60009c80   0x000001c4   Code   RO         1991    i.xQueueGenericReceive  queue.o
    0x60009e44   0x60009e44   0x00000098   Code   RO         1992    i.xQueueGenericReset  queue.o
    0x60009edc   0x60009edc   0x000001a8   Code   RO         1993    i.xQueueGenericSend  queue.o
    0x6000a084   0x6000a084   0x000000f8   Code   RO         1994    i.xQueueGenericSendFromISR  queue.o
    0x6000a17c   0x6000a17c   0x000000e0   Code   RO         1995    i.xQueueGiveFromISR  queue.o
    0x6000a25c   0x6000a25c   0x0000008c   Code   RO         2209    i.xTaskCheckForTimeOut  tasks.o
    0x6000a2e8   0x6000a2e8   0x00000060   Code   RO         2210    i.xTaskCreate       tasks.o
    0x6000a348   0x6000a348   0x00000020   Code   RO         2214    i.xTaskGetSchedulerState  tasks.o
    0x6000a368   0x6000a368   0x0000000c   Code   RO         2215    i.xTaskGetTickCount  tasks.o
    0x6000a374   0x6000a374   0x0000012c   Code   RO         2217    i.xTaskIncrementTick  tasks.o
    0x6000a4a0   0x6000a4a0   0x000000c8   Code   RO         2220    i.xTaskPriorityDisinherit  tasks.o
    0x6000a568   0x6000a568   0x00000098   Code   RO         2221    i.xTaskRemoveFromEventList  tasks.o
    0x6000a600   0x6000a600   0x00000104   Code   RO         2223    i.xTaskResumeAll    tasks.o
    0x6000a704   0x6000a704   0x00000054   Code   RO         2535    i.xTimerCreateTimerTask  timers.o
    0x6000a758   0x6000a758   0x00000084   Code   RO         2536    i.xTimerGenericCommand  timers.o
    0x6000a7dc   0x6000a7dc   0x0000002c   Code   RO         4129    locale$$code        c_w.l(lc_ctype_c.o)
    0x6000a808   0x6000a808   0x0000000a   Code   RO         4110    x$fpl$fpinit        fz_wm.l(fpinit.o)
    0x6000a812   0x6000a812   0x00000002   PAD
    0x6000a814   0x6000a814   0x00000007   Data   RO           15    .constdata          board.o
    0x6000a81b   0x6000a81b   0x00000001   PAD
    0x6000a81c   0x6000a81c   0x00000011   Data   RO          145    .constdata          clock_config.o
    0x6000a82d   0x6000a82d   0x00000003   PAD
    0x6000a830   0x6000a830   0x00000010   Data   RO          386    .constdata          fsl_clock.o
    0x6000a840   0x6000a840   0x00000024   Data   RO          749    .constdata          fsl_gpio.o
    0x6000a864   0x6000a864   0x00000028   Data   RO          852    .constdata          fsl_lpi2c.o
    0x6000a88c   0x6000a88c   0x00000048   Data   RO         1242    .constdata          fsl_lpuart.o
    0x6000a8d4   0x6000a8d4   0x0000003c   Data   RO         1596    .constdata          fsl_pwm.o
    0x6000a910   0x6000a910   0x00000006   Data   RO         1700    .constdata          fsl_xbara.o
    0x6000a916   0x6000a916   0x00000010   Data   RO         2226    .constdata          tasks.o
    0x6000a926   0x6000a926   0x00000002   PAD
    0x6000a928   0x6000a928   0x00000020   Data   RO         3223    .constdata          fsl_shell.o
    0x6000a948   0x6000a948   0x00000030   Data   RO         3700    .constdata          shell_command.o
    0x6000a978   0x6000a978   0x00000109   Data   RO         3224    .conststring        fsl_shell.o
    0x6000aa81   0x6000aa81   0x00000003   PAD
    0x6000aa84   0x6000aa84   0x00000128   Data   RO         3701    .conststring        shell_command.o
    0x6000abac   0x6000abac   0x00000020   Data   RO         4217    Region$$Table       anon$$obj.o
    0x6000abcc   0x6000abcc   0x00000110   Data   RO         4128    locale$$data        c_w.l(lc_ctype_c.o)



  Load Region LR_m_interrupts (Base: 0x60002000, Size: 0x00000400, Max: 0x00000400, ABSOLUTE)

    Execution Region VECTOR_ROM (Exec base: 0x60002000, Load base: 0x60002000, Size: 0x00000400, Max: 0x00000400, ABSOLUTE)

    Exec Addr    Load Addr    Size         Type   Attr      Idx    E Section Name        Object

    0x60002000   0x60002000   0x00000400   Data   RO         2922    RESET               startup_mimxrt1052.o



  Load Region LR$$.ARM.__AT_0x60000000 (Base: 0x60000000, Size: 0x00000200, Max: 0x00000200, ABSOLUTE)

    Execution Region ER$$.ARM.__AT_0x60000000 (Exec base: 0x60000000, Load base: 0x60000000, Size: 0x00000200, Max: 0x00000200, ABSOLUTE, UNINIT)

    Exec Addr    Load Addr    Size         Type   Attr      Idx    E Section Name        Object

    0x60000000   0x60000000   0x00000200   Data   RO         3881    .ARM.__AT_0x60000000  nor_flash_boot.o



  Load Region LR$$.ARM.__AT_0x60001000 (Base: 0x60001000, Size: 0x00000040, Max: 0x00000040, ABSOLUTE)

    Execution Region ER$$.ARM.__AT_0x60001000 (Exec base: 0x60001000, Load base: 0x60001000, Size: 0x00000040, Max: 0x00000040, ABSOLUTE, UNINIT)

    Exec Addr    Load Addr    Size         Type   Attr      Idx    E Section Name        Object

    0x60001000   0x60001000   0x00000040   Data   RO         3882    .ARM.__AT_0x60001000  nor_flash_boot.o


==============================================================================

Image component sizes


      Code (inc. data)   RO Data    RW Data    ZI Data      Debug   Object Name

      2320       1024          0          6          0      15534   app.o
      1172        122          7          0          0    1405794   board.o
      1028        268          0          0          0      27647   cleanbot_main.o
       604        218         17          0          0      16186   clock_config.o
        12          0          0          8          0        892   common.o
         0          0          0          0          0       2576   croutine.o
         0          0          0          0          0      11772   event_groups.o
         0          0          0          0          0      13323   fsl_adc.o
        68         44          0          0          0        629   fsl_assert.o
      1392        122         16          8          0      17140   fsl_clock.o
       280         90          0          0          0       3828   fsl_debug_console.o
        72         12          0         24          0       8327   fsl_flexio.o
       570        176         36          0          0      15151   fsl_gpio.o
       248         54          0          8          0       6936   fsl_io.o
       266         98          0          0          0       4340   fsl_log.o
      2896        492         40          8         32      67979   fsl_lpi2c.o
       246         10          0          0          0      18912   fsl_lpi2c_freertos.o
      1756        552         72          4         36      19284   fsl_lpuart.o
      2240        340         60          0          0      11546   fsl_pwm.o
      2184        302        297         12        148      11804   fsl_shell.o
       726          0          0          0          0       3562   fsl_str.o
        32          6          0          0          0        551   fsl_tickless_systick.o
       302        126          6          0          0       4042   fsl_xbara.o
       692         62          0         24      10240       4331   heap_4.o
       148          0          0          0          0       3142   list.o
       762        130          0          0          0      20992   motor.o
         0          0        576          0          0        380   nor_flash_boot.o
       974         62          0          0          0      80600   pin_mux.o
       922         86          0         12          0      10396   port.o
      2250         26          0          0         64      17112   queue.o
       552        180        344          0          0      10225   shell_command.o
       444        210       1024          0          0       3108   startup_mimxrt1052.o
      2186        168          0          4          0    1383683   system_mimxrt1052.o
      3060        398         16         60        300      23512   tasks.o
      1182        114          0         20         40      17319   timers.o
       492         82          0         18        196      38616   vl53l0x.o

    ----------------------------------------------------------------------
     32120       5574       2552        220      13104    3301171   Object Totals
         0          0         32          0       2048          0   (incl. Generated)
        42          0          9          4          0          0   (incl. Padding)

    ----------------------------------------------------------------------

      Code (inc. data)   RO Data    RW Data    ZI Data      Debug   Library Member Name

         8          0          0          0          0         68   __main.o
         0          0          0          0          0          0   __rtentry.o
        12          0          0          0          0          0   __rtentry2.o
         8          4          0          0          0          0   __rtentry7.o
        52          8          0          0          0          0   __scatter.o
        26          0          0          0          0          0   __scatter_copy.o
        28          0          0          0          0          0   __scatter_zi.o
        28          0          0          0          0         68   _chval.o
       158          0          0          0          0         92   _strtoul.o
        16          0          0          0          0         68   aeabi_memset.o
        26          0          0          0          0         80   atoi.o
        18          0          0          0          0         80   exit.o
         0          0          0          0          0          0   indicate_semi.o
        44         10        272          0          0         76   lc_ctype_c.o
         2          0          0          0          0          0   libinit.o
        28          0          0          0          0          0   libinit2.o
         2          0          0          0          0          0   libshutdown.o
         2          0          0          0          0          0   libshutdown2.o
         0          0          0          0         96          0   libspace.o
       238          0          0          0          0        100   lludivv7m.o
        16          4          0          0          0         76   rt_ctype_table.o
         8          4          0          0          0         68   rt_errno_addr_intlibspace.o
         8          4          0          0          0         68   rt_locale_intlibspace.o
        68          0          0          0          0         68   rt_memclr.o
        78          0          0          0          0         80   rt_memclr_w.o
       138          0          0          0          0         68   rt_memcpy_v6.o
       100          0          0          0          0         80   rt_memcpy_w.o
       132          0          0          0          0         68   rt_memmove_v6.o
       122          0          0          0          0         80   rt_memmove_w.o
         2          0          0          0          0          0   rtexit.o
        10          0          0          0          0          0   rtexit2.o
       104          0          0          0          0         68   strcmpv7m_pel.o
        62          0          0          0          0         76   strlen.o
       112          0          0          0          0         88   strtol.o
        12          4          0          0          0         68   sys_exit.o
         2          0          0          0          0         68   use_no_semi.o
        10          0          0          0          0        116   fpinit.o

    ----------------------------------------------------------------------
      1692         38        272          0         96       1772   Library Totals
        12          0          0          0          0          0   (incl. Padding)

    ----------------------------------------------------------------------

      Code (inc. data)   RO Data    RW Data    ZI Data      Debug   Library Name

      1670         38        272          0         96       1656   c_w.l
        10          0          0          0          0        116   fz_wm.l

    ----------------------------------------------------------------------
      1692         38        272          0         96       1772   Library Totals

    ----------------------------------------------------------------------

==============================================================================


      Code (inc. data)   RO Data    RW Data    ZI Data      Debug   

     33812       5612       2824        220      13200    3277807   Grand Totals
     33812       5612       2824        220      13200    3277807   ELF Image Totals
     33812       5612       2824        220          0          0   ROM Totals

==============================================================================

    Total RO  Size (Code + RO Data)                36636 (  35.78kB)
    Total RW  Size (RW Data + ZI Data)             13420 (  13.11kB)
    Total ROM Size (Code + RO Data + RW Data)      36856 (  35.99kB)

==============================================================================

